{
  "_format": "hh-sol-artifact-1",
  "contractName": "UpdateManager",
  "sourceName": "contracts/updateManager/UpdateManager.sol",
  "abi": [
    {
      "anonymous": false,
      "inputs": [
        {
          "indexed": true,
          "internalType": "address",
          "name": "previousOwner",
          "type": "address"
        },
        {
          "indexed": true,
          "internalType": "address",
          "name": "newOwner",
          "type": "address"
        }
      ],
      "name": "OwnershipTransferred",
      "type": "event"
    },
    {
      "anonymous": false,
      "inputs": [
        {
          "indexed": false,
          "internalType": "bytes32",
          "name": "app",
          "type": "bytes32"
        },
        {
          "indexed": false,
          "internalType": "address",
          "name": "admin",
          "type": "address"
        }
      ],
      "name": "SetAppCode",
      "type": "event"
    },
    {
      "inputs": [
        {
          "internalType": "bytes32",
          "name": "app",
          "type": "bytes32"
        }
      ],
      "name": "getAppCodeHistory",
      "outputs": [
        {
          "internalType": "address[]",
          "name": "",
          "type": "address[]"
        }
      ],
      "stateMutability": "view",
      "type": "function"
    },
    {
      "inputs": [
        {
          "internalType": "bytes32",
          "name": "app",
          "type": "bytes32"
        }
      ],
      "name": "getLastAppCode",
      "outputs": [
        {
          "internalType": "address",
          "name": "",
          "type": "address"
        }
      ],
      "stateMutability": "view",
      "type": "function"
    },
    {
      "inputs": [
        {
          "internalType": "address",
          "name": "kernel",
          "type": "address"
        },
        {
          "internalType": "address",
          "name": "admin",
          "type": "address"
        },
        {
          "internalType": "address",
          "name": "erc721",
          "type": "address"
        },
        {
          "internalType": "address",
          "name": "erc721OpenSale",
          "type": "address"
        },
        {
          "internalType": "address",
          "name": "erc721WhitelistSale",
          "type": "address"
        }
      ],
      "name": "initialize",
      "outputs": [],
      "stateMutability": "nonpayable",
      "type": "function"
    },
    {
      "inputs": [],
      "name": "owner",
      "outputs": [
        {
          "internalType": "address",
          "name": "",
          "type": "address"
        }
      ],
      "stateMutability": "view",
      "type": "function"
    },
    {
      "inputs": [],
      "name": "renounceOwnership",
      "outputs": [],
      "stateMutability": "nonpayable",
      "type": "function"
    },
    {
      "inputs": [
        {
          "internalType": "bytes32",
          "name": "app",
          "type": "bytes32"
        },
        {
          "internalType": "address",
          "name": "code",
          "type": "address"
        }
      ],
      "name": "setAppCode",
      "outputs": [],
      "stateMutability": "nonpayable",
      "type": "function"
    },
    {
      "inputs": [
        {
          "internalType": "address",
          "name": "newOwner",
          "type": "address"
        }
      ],
      "name": "transferOwnership",
      "outputs": [],
      "stateMutability": "nonpayable",
      "type": "function"
    },
    {
      "inputs": [
        {
          "internalType": "address",
          "name": "appCode",
          "type": "address"
        }
      ],
      "name": "upgrade",
      "outputs": [],
      "stateMutability": "nonpayable",
      "type": "function"
    }
  ],
  "bytecode": "0x608060405234801561001057600080fd5b50610a03806100206000396000f3fe608060405234801561001057600080fd5b50600436106100885760003560e01c80638da5cb5b1161005b5780638da5cb5b146100d05780639499138e146100fa578063ba11e6e61461011a578063f2fde38b1461012d57600080fd5b80630900f0101461008d5780631459457a146100a25780635e4a8a20146100b5578063715018a6146100c8575b600080fd5b6100a061009b3660046107ab565b610140565b005b6100a06100b03660046107c6565b61019d565b6100a06100c336600461082b565b61038f565b6100a06103c7565b6097546001600160a01b03165b6040516001600160a01b0390911681526020015b60405180910390f35b61010d610108366004610857565b6103fd565b6040516100f19190610870565b6100dd610128366004610857565b61041d565b6100a061013b3660046107ab565b610459565b6097546001600160a01b031633146101735760405162461bcd60e51b815260040161016a906108bd565b60405180910390fd5b8061017c6104f4565b80546001600160a01b0319166001600160a01b039290921691909117905550565b606454610100900460ff166101b85760645460ff16156101bc565b303b155b61021f5760405162461bcd60e51b815260206004820152602e60248201527f496e697469616c697a61626c653a20636f6e747261637420697320616c72656160448201526d191e481a5b9a5d1a585b1a5e995960921b606482015260840161016a565b606454610100900460ff16158015610241576064805461ffff19166101011790555b61024961052c565b6040516512d15493915360d21b602082015261027e90602601604051602081830303815290604052805190602001208761055b565b6040516f20a226a4a72fa1a7a72a2927a62622a960811b60208201526102bd90603001604051602081830303815290604052805190602001208661055b565b6040516545524337323160d01b60208201526102f290602601604051602081830303815290604052805190602001208561055b565b6040516f4552433732315f4f50454e5f53414c4560801b602082015261033190603001604051602081830303815290604052805190602001208461055b565b604051744552433732315f57484954454c4953545f53414c4560581b602082015261037590603501604051602081830303815290604052805190602001208361055b565b8015610387576064805461ff00191690555b505050505050565b6097546001600160a01b031633146103b95760405162461bcd60e51b815260040161016a906108bd565b6103c3828261055b565b5050565b6097546001600160a01b031633146103f15760405162461bcd60e51b815260040161016a906108bd565b6103fb60006105f9565b565b600081815260c9602052604090206060906104179061064b565b92915050565b600081815260c9602052604081206104179060019061043b9061065f565b61044591906108f2565b600084815260c96020526040902090610669565b6097546001600160a01b031633146104835760405162461bcd60e51b815260040161016a906108bd565b6001600160a01b0381166104e85760405162461bcd60e51b815260206004820152602660248201527f4f776e61626c653a206e6577206f776e657220697320746865207a65726f206160448201526564647265737360d01b606482015260840161016a565b6104f1816105f9565b50565b600061052761052460017f797d7c7d0df25d67e029b044c5bcb2b89d68f6483382b5f85e64485950ed88d16108f2565b90565b905090565b606454610100900460ff166105535760405162461bcd60e51b815260040161016a90610917565b6103fb610675565b600082815260c96020526040902061057390826106a5565b6040518060400160405280600981526020016812539590549250539560ba1b815250906105b35760405162461bcd60e51b815260040161016a9190610962565b50604080518381526001600160a01b03831660208201527f7536c7703d321558d15a6f344db59e1721430eeb9885a88b380f91b70bb0b4ee910160405180910390a15050565b609780546001600160a01b038381166001600160a01b0319831681179093556040519116919082907f8be0079c531659141344cd1fd0a4f28419497f9722a3daafe3b4186f6b6457e090600090a35050565b60606000610658836106ba565b9392505050565b6000610417825490565b60006106588383610716565b606454610100900460ff1661069c5760405162461bcd60e51b815260040161016a90610917565b6103fb336105f9565b6000610658836001600160a01b038416610740565b60608160000180548060200260200160405190810160405280929190818152602001828054801561070a57602002820191906000526020600020905b8154815260200190600101908083116106f6575b50505050509050919050565b600082600001828154811061072d5761072d6109b7565b9060005260206000200154905092915050565b600081815260018301602052604081205461078757508154600181810184556000848152602080822090930184905584548482528286019093526040902091909155610417565b506000610417565b80356001600160a01b03811681146107a657600080fd5b919050565b6000602082840312156107bd57600080fd5b6106588261078f565b600080600080600060a086880312156107de57600080fd5b6107e78661078f565b94506107f56020870161078f565b93506108036040870161078f565b92506108116060870161078f565b915061081f6080870161078f565b90509295509295909350565b6000806040838503121561083e57600080fd5b8235915061084e6020840161078f565b90509250929050565b60006020828403121561086957600080fd5b5035919050565b6020808252825182820181905260009190848201906040850190845b818110156108b15783516001600160a01b03168352928401929184019160010161088c565b50909695505050505050565b6020808252818101527f4f776e61626c653a2063616c6c6572206973206e6f7420746865206f776e6572604082015260600190565b60008282101561091257634e487b7160e01b600052601160045260246000fd5b500390565b6020808252602b908201527f496e697469616c697a61626c653a20636f6e7472616374206973206e6f74206960408201526a6e697469616c697a696e6760a81b606082015260800190565b600060208083528351808285015260005b8181101561098f57858101830151858201604001528201610973565b818111156109a1576000604083870101525b50601f01601f1916929092016040019392505050565b634e487b7160e01b600052603260045260246000fdfea2646970667358221220160040edb14f89afe37800d5bf9ce3745ae13f498d19af972fe55f9216840d7364736f6c634300080c0033",
  "linkReferences": {},
  "deployedLinkReferences": {}
}