{
  "_format": "hh-sol-artifact-1",
  "contractName": "ERC721Properties",
  "sourceName": "contracts/apps/ERC721Properties/ERC721Properties.sol",
  "abi": [
    {
      "anonymous": false,
      "inputs": [
        {
          "indexed": true,
          "internalType": "address",
          "name": "owner",
          "type": "address"
        },
        {
          "indexed": true,
          "internalType": "address",
          "name": "approved",
          "type": "address"
        },
        {
          "indexed": true,
          "internalType": "uint256",
          "name": "tokenId",
          "type": "uint256"
        }
      ],
      "name": "Approval",
      "type": "event"
    },
    {
      "anonymous": false,
      "inputs": [
        {
          "indexed": true,
          "internalType": "address",
          "name": "owner",
          "type": "address"
        },
        {
          "indexed": true,
          "internalType": "address",
          "name": "operator",
          "type": "address"
        },
        {
          "indexed": false,
          "internalType": "bool",
          "name": "approved",
          "type": "bool"
        }
      ],
      "name": "ApprovalForAll",
      "type": "event"
    },
    {
      "anonymous": false,
      "inputs": [
        {
          "indexed": false,
          "internalType": "uint32",
          "name": "tokenId",
          "type": "uint32"
        }
      ],
      "name": "Burn",
      "type": "event"
    },
    {
      "anonymous": false,
      "inputs": [
        {
          "indexed": false,
          "internalType": "contract IKernel",
          "name": "kernel",
          "type": "address"
        }
      ],
      "name": "Init",
      "type": "event"
    },
    {
      "anonymous": false,
      "inputs": [
        {
          "indexed": false,
          "internalType": "uint32",
          "name": "tokenId",
          "type": "uint32"
        },
        {
          "indexed": false,
          "internalType": "string[]",
          "name": "propKeys",
          "type": "string[]"
        },
        {
          "indexed": false,
          "internalType": "bytes32[]",
          "name": "propValues",
          "type": "bytes32[]"
        }
      ],
      "name": "Mint",
      "type": "event"
    },
    {
      "anonymous": false,
      "inputs": [
        {
          "indexed": true,
          "internalType": "address",
          "name": "previousOwner",
          "type": "address"
        },
        {
          "indexed": true,
          "internalType": "address",
          "name": "newOwner",
          "type": "address"
        }
      ],
      "name": "OwnershipTransferred",
      "type": "event"
    },
    {
      "anonymous": false,
      "inputs": [
        {
          "indexed": false,
          "internalType": "string",
          "name": "propKey",
          "type": "string"
        },
        {
          "indexed": false,
          "internalType": "bytes32",
          "name": "propValue",
          "type": "bytes32"
        },
        {
          "indexed": false,
          "internalType": "string",
          "name": "attrKey",
          "type": "string"
        },
        {
          "indexed": false,
          "internalType": "bytes32",
          "name": "attrValue",
          "type": "bytes32"
        }
      ],
      "name": "SetAttribute",
      "type": "event"
    },
    {
      "anonymous": false,
      "inputs": [
        {
          "indexed": true,
          "internalType": "address",
          "name": "from",
          "type": "address"
        },
        {
          "indexed": true,
          "internalType": "address",
          "name": "to",
          "type": "address"
        },
        {
          "indexed": true,
          "internalType": "uint256",
          "name": "tokenId",
          "type": "uint256"
        }
      ],
      "name": "Transfer",
      "type": "event"
    },
    {
      "anonymous": false,
      "inputs": [
        {
          "indexed": false,
          "internalType": "address",
          "name": "code",
          "type": "address"
        }
      ],
      "name": "Upgrade",
      "type": "event"
    },
    {
      "inputs": [],
      "name": "CONTROLLER",
      "outputs": [
        {
          "internalType": "uint8",
          "name": "",
          "type": "uint8"
        }
      ],
      "stateMutability": "view",
      "type": "function"
    },
    {
      "inputs": [],
      "name": "__0",
      "outputs": [
        {
          "internalType": "bool",
          "name": "",
          "type": "bool"
        }
      ],
      "stateMutability": "view",
      "type": "function"
    },
    {
      "inputs": [],
      "name": "__1",
      "outputs": [
        {
          "internalType": "uint32",
          "name": "",
          "type": "uint32"
        }
      ],
      "stateMutability": "view",
      "type": "function"
    },
    {
      "inputs": [
        {
          "internalType": "address",
          "name": "to",
          "type": "address"
        },
        {
          "internalType": "uint256",
          "name": "tokenId",
          "type": "uint256"
        }
      ],
      "name": "approve",
      "outputs": [],
      "stateMutability": "nonpayable",
      "type": "function"
    },
    {
      "inputs": [
        {
          "internalType": "address",
          "name": "owner",
          "type": "address"
        }
      ],
      "name": "balanceOf",
      "outputs": [
        {
          "internalType": "uint256",
          "name": "",
          "type": "uint256"
        }
      ],
      "stateMutability": "view",
      "type": "function"
    },
    {
      "inputs": [],
      "name": "baseURI",
      "outputs": [
        {
          "internalType": "string",
          "name": "",
          "type": "string"
        }
      ],
      "stateMutability": "view",
      "type": "function"
    },
    {
      "inputs": [
        {
          "internalType": "uint32",
          "name": "tokenId",
          "type": "uint32"
        }
      ],
      "name": "burn",
      "outputs": [],
      "stateMutability": "nonpayable",
      "type": "function"
    },
    {
      "inputs": [],
      "name": "contractURI",
      "outputs": [
        {
          "internalType": "string",
          "name": "",
          "type": "string"
        }
      ],
      "stateMutability": "view",
      "type": "function"
    },
    {
      "inputs": [
        {
          "internalType": "uint256",
          "name": "tokenId",
          "type": "uint256"
        }
      ],
      "name": "getApproved",
      "outputs": [
        {
          "internalType": "address",
          "name": "",
          "type": "address"
        }
      ],
      "stateMutability": "view",
      "type": "function"
    },
    {
      "inputs": [
        {
          "internalType": "string",
          "name": "propKey",
          "type": "string"
        },
        {
          "internalType": "bytes32",
          "name": "propValue",
          "type": "bytes32"
        },
        {
          "internalType": "string",
          "name": "attrKey",
          "type": "string"
        }
      ],
      "name": "getAttribute",
      "outputs": [
        {
          "internalType": "bytes32",
          "name": "",
          "type": "bytes32"
        }
      ],
      "stateMutability": "view",
      "type": "function"
    },
    {
      "inputs": [
        {
          "internalType": "uint32",
          "name": "tokenId",
          "type": "uint32"
        },
        {
          "internalType": "string",
          "name": "key",
          "type": "string"
        }
      ],
      "name": "getPropertyValue",
      "outputs": [
        {
          "internalType": "bytes32",
          "name": "",
          "type": "bytes32"
        }
      ],
      "stateMutability": "view",
      "type": "function"
    },
    {
      "inputs": [
        {
          "internalType": "bytes32",
          "name": "tier",
          "type": "bytes32"
        }
      ],
      "name": "hasRandomMint",
      "outputs": [
        {
          "internalType": "bool",
          "name": "",
          "type": "bool"
        }
      ],
      "stateMutability": "view",
      "type": "function"
    },
    {
      "inputs": [],
      "name": "implementation",
      "outputs": [
        {
          "internalType": "address",
          "name": "",
          "type": "address"
        }
      ],
      "stateMutability": "view",
      "type": "function"
    },
    {
      "inputs": [
        {
          "components": [
            {
              "internalType": "contract IKernel",
              "name": "kernel",
              "type": "address"
            },
            {
              "internalType": "address",
              "name": "openseaOwner",
              "type": "address"
            },
            {
              "internalType": "string",
              "name": "baseURI",
              "type": "string"
            },
            {
              "internalType": "string",
              "name": "name",
              "type": "string"
            },
            {
              "internalType": "string",
              "name": "symbol",
              "type": "string"
            }
          ],
          "internalType": "struct ERC721Properties.Initialization",
          "name": "init",
          "type": "tuple"
        }
      ],
      "name": "initialize",
      "outputs": [],
      "stateMutability": "nonpayable",
      "type": "function"
    },
    {
      "inputs": [
        {
          "internalType": "address",
          "name": "owner",
          "type": "address"
        },
        {
          "internalType": "address",
          "name": "operator",
          "type": "address"
        }
      ],
      "name": "isApprovedForAll",
      "outputs": [
        {
          "internalType": "bool",
          "name": "",
          "type": "bool"
        }
      ],
      "stateMutability": "view",
      "type": "function"
    },
    {
      "inputs": [
        {
          "internalType": "address",
          "name": "to",
          "type": "address"
        },
        {
          "internalType": "bytes32",
          "name": "tierValue",
          "type": "bytes32"
        }
      ],
      "name": "mint",
      "outputs": [],
      "stateMutability": "nonpayable",
      "type": "function"
    },
    {
      "inputs": [],
      "name": "name",
      "outputs": [
        {
          "internalType": "string",
          "name": "",
          "type": "string"
        }
      ],
      "stateMutability": "view",
      "type": "function"
    },
    {
      "inputs": [],
      "name": "owner",
      "outputs": [
        {
          "internalType": "address",
          "name": "",
          "type": "address"
        }
      ],
      "stateMutability": "view",
      "type": "function"
    },
    {
      "inputs": [
        {
          "internalType": "uint256",
          "name": "tokenId",
          "type": "uint256"
        }
      ],
      "name": "ownerOf",
      "outputs": [
        {
          "internalType": "address",
          "name": "",
          "type": "address"
        }
      ],
      "stateMutability": "view",
      "type": "function"
    },
    {
      "inputs": [],
      "name": "renounceOwnership",
      "outputs": [],
      "stateMutability": "nonpayable",
      "type": "function"
    },
    {
      "inputs": [
        {
          "internalType": "address",
          "name": "from",
          "type": "address"
        },
        {
          "internalType": "address",
          "name": "to",
          "type": "address"
        },
        {
          "internalType": "uint256",
          "name": "tokenId",
          "type": "uint256"
        }
      ],
      "name": "safeTransferFrom",
      "outputs": [],
      "stateMutability": "nonpayable",
      "type": "function"
    },
    {
      "inputs": [
        {
          "internalType": "address",
          "name": "from",
          "type": "address"
        },
        {
          "internalType": "address",
          "name": "to",
          "type": "address"
        },
        {
          "internalType": "uint256",
          "name": "tokenId",
          "type": "uint256"
        },
        {
          "internalType": "bytes",
          "name": "_data",
          "type": "bytes"
        }
      ],
      "name": "safeTransferFrom",
      "outputs": [],
      "stateMutability": "nonpayable",
      "type": "function"
    },
    {
      "inputs": [
        {
          "internalType": "address",
          "name": "operator",
          "type": "address"
        },
        {
          "internalType": "bool",
          "name": "approved",
          "type": "bool"
        }
      ],
      "name": "setApprovalForAll",
      "outputs": [],
      "stateMutability": "nonpayable",
      "type": "function"
    },
    {
      "inputs": [
        {
          "internalType": "string",
          "name": "propKey",
          "type": "string"
        },
        {
          "internalType": "bytes32",
          "name": "propValue",
          "type": "bytes32"
        },
        {
          "internalType": "string",
          "name": "attrKey",
          "type": "string"
        },
        {
          "internalType": "bytes32",
          "name": "attrValue",
          "type": "bytes32"
        }
      ],
      "name": "setAttribute",
      "outputs": [],
      "stateMutability": "nonpayable",
      "type": "function"
    },
    {
      "inputs": [
        {
          "internalType": "string",
          "name": "uri",
          "type": "string"
        }
      ],
      "name": "setBaseURI",
      "outputs": [],
      "stateMutability": "nonpayable",
      "type": "function"
    },
    {
      "inputs": [
        {
          "internalType": "bytes4",
          "name": "interfaceId",
          "type": "bytes4"
        }
      ],
      "name": "supportsInterface",
      "outputs": [
        {
          "internalType": "bool",
          "name": "",
          "type": "bool"
        }
      ],
      "stateMutability": "view",
      "type": "function"
    },
    {
      "inputs": [],
      "name": "symbol",
      "outputs": [
        {
          "internalType": "string",
          "name": "",
          "type": "string"
        }
      ],
      "stateMutability": "view",
      "type": "function"
    },
    {
      "inputs": [
        {
          "internalType": "bytes32",
          "name": "tier",
          "type": "bytes32"
        }
      ],
      "name": "tierExtraArtworksNum",
      "outputs": [
        {
          "internalType": "uint256",
          "name": "",
          "type": "uint256"
        }
      ],
      "stateMutability": "view",
      "type": "function"
    },
    {
      "inputs": [
        {
          "internalType": "uint256",
          "name": "tokenId",
          "type": "uint256"
        }
      ],
      "name": "tokenURI",
      "outputs": [
        {
          "internalType": "string",
          "name": "",
          "type": "string"
        }
      ],
      "stateMutability": "view",
      "type": "function"
    },
    {
      "inputs": [
        {
          "internalType": "address",
          "name": "from",
          "type": "address"
        },
        {
          "internalType": "address",
          "name": "to",
          "type": "address"
        },
        {
          "internalType": "uint256",
          "name": "tokenId",
          "type": "uint256"
        }
      ],
      "name": "transferFrom",
      "outputs": [],
      "stateMutability": "nonpayable",
      "type": "function"
    },
    {
      "inputs": [
        {
          "internalType": "address",
          "name": "newOwner",
          "type": "address"
        }
      ],
      "name": "transferOwnership",
      "outputs": [],
      "stateMutability": "nonpayable",
      "type": "function"
    },
    {
      "inputs": [
        {
          "internalType": "address",
          "name": "appCode",
          "type": "address"
        }
      ],
      "name": "upgrade",
      "outputs": [],
      "stateMutability": "nonpayable",
      "type": "function"
    }
  ],
  "bytecode": "0x60a060405261012d805460ff60a01b191690556200001c62000036565b60ff166080523480156200002f57600080fd5b50620000d9565b61012d54600090600f600160a01b90910460ff16106200005a576200005a62000094565b61012d8054600160a01b900460ff169060146200007783620000aa565b91906101000a81548160ff021916908360ff160217905550905090565b634e487b7160e01b600052600160045260246000fd5b600060ff821660ff811415620000d057634e487b7160e01b600052601160045260246000fd5b60010192915050565b608051612dd662000111600039600081816104760152818161083201528181610cdf01528181610d61015261117d0152612dd66000f3fe608060405234801561001057600080fd5b50600436106101f05760003560e01c806370a082311161010f578063a22cb465116100a2578063e8a3d48511610071578063e8a3d4851461042d578063e985e9c514610435578063ee0fc12114610471578063f2fde38b146104aa57600080fd5b8063a22cb465146103e1578063b88d4fde146103f4578063c327f66014610407578063c87b56dd1461041a57600080fd5b80638c794467116100de5780638c794467146103a25780638da5cb5b146103b557806390d3786e146103c657806395d89b41146103d957600080fd5b806370a0823114610358578063715018a614610379578063743ebeb5146103815780637a5984c41461038f57600080fd5b80633f58ef4b116101875780635c60da1b116101565780635c60da1b146103225780635c7a3ef71461032a5780636352211e1461033d5780636c0360eb1461035057600080fd5b80633f58ef4b146102d657806342842e0e146102e957806355f804b3146102fc5780635a9b0f481461030f57600080fd5b8063095ea7b3116101c3578063095ea7b3146102725780630e4239fc1461028557806323b872dd146102b05780632cfd3005146102c357600080fd5b806301ffc9a7146101f557806306fdde031461021d578063081812fc146102325780630900f0101461025d575b600080fd5b6102086102033660046123a3565b6104bd565b60405190151581526020015b60405180910390f35b61022561050f565b604051610214919061241f565b610245610240366004612432565b6105a1565b6040516001600160a01b039091168152602001610214565b61027061026b366004612460565b61063b565b005b61027061028036600461247d565b6106e9565b6101925461029b90610100900463ffffffff1681565b60405163ffffffff9091168152602001610214565b6102706102be3660046124a9565b6107ff565b6102706102d136600461247d565b610830565b6102086102e4366004612432565b610c65565b6102706102f73660046124a9565b610cc2565b61027061030a366004612533565b610cdd565b61027061031d366004612621565b610d5f565b610245610de1565b610270610338366004612696565b610dfa565b61024561034b366004612432565b610f88565b610225610fff565b61036b610366366004612460565b61108e565b604051908152602001610214565b610270611115565b610192546102089060ff1681565b61027061039d3660046126ea565b61117b565b61036b6103b0366004612432565b611344565b60fb546001600160a01b0316610245565b61036b6103d4366004612705565b6113a2565b6102256113b7565b6102706103ef366004612780565b6113c6565b6102706104023660046127b9565b6113d1565b61036b610415366004612839565b611403565b610225610428366004612432565b611445565b610225611519565b61020861044336600461288c565b6001600160a01b03918216600090815260ce6020908152604080832093909416825291909152205460ff1690565b6104987f000000000000000000000000000000000000000000000000000000000000000081565b60405160ff9091168152602001610214565b6102706104b8366004612460565b611542565b60006001600160e01b031982166380ac58cd60e01b14806104ee57506001600160e01b03198216635b5e139f60e01b145b8061050957506301ffc9a760e01b6001600160e01b03198316145b92915050565b606060c9805461051e906128ba565b80601f016020809104026020016040519081016040528092919081815260200182805461054a906128ba565b80156105975780601f1061056c57610100808354040283529160200191610597565b820191906000526020600020905b81548152906001019060200180831161057a57829003601f168201915b5050505050905090565b600081815260cb60205260408120546001600160a01b031661061f5760405162461bcd60e51b815260206004820152602c60248201527f4552433732313a20617070726f76656420717565727920666f72206e6f6e657860448201526b34b9ba32b73a103a37b5b2b760a11b60648201526084015b60405180910390fd5b50600090815260cd60205260409020546001600160a01b031690565b61012d5460408051808201909152600d81526c20aaaa2427a924ad20aa24a7a760991b6020820152906001600160a01b0316331461068c5760405162461bcd60e51b8152600401610616919061241f565b508061069661160d565b80546001600160a01b0319166001600160a01b0392831617905560405190821681527ff78721226efe9a1bb678189a16d1554928b9f2192e2cb93eeda83b79fa40007d906020015b60405180910390a150565b60006106f482610f88565b9050806001600160a01b0316836001600160a01b031614156107625760405162461bcd60e51b815260206004820152602160248201527f4552433732313a20617070726f76616c20746f2063757272656e74206f776e656044820152603960f91b6064820152608401610616565b336001600160a01b038216148061077e575061077e8133610443565b6107f05760405162461bcd60e51b815260206004820152603860248201527f4552433732313a20617070726f76652063616c6c6572206973206e6f74206f7760448201527f6e6572206e6f7220617070726f76656420666f7220616c6c00000000000000006064820152608401610616565b6107fa8383611645565b505050565b61080933826116b3565b6108255760405162461bcd60e51b8152600401610616906128f5565b6107fa8383836117a6565b7f000000000000000000000000000000000000000000000000000000000000000061085a8161194d565b6040518060400160405280600d81526020016c20aaaa2427a924ad20aa24a7a760991b8152509061089e5760405162461bcd60e51b8152600401610616919061241f565b5060006108ea604051806040016040528060048152602001632a24a2a960e11b815250846040518060400160405280600a81526020016913505617d05353d5539560b21b8152506119ca565b60001c9050600061093c604051806040016040528060048152602001632a24a2a960e11b815250856040518060400160405280600c81526020016b1513d5105317d05353d5539560a21b8152506119ca565b9050600061094985611344565b9050600061095686610c65565b90508383106040518060400160405280601981526020017f494e56414c49445f544945525f414d4f554e545f4552524f5200000000000000815250906109af5760405162461bcd60e51b8152600401610616919061241f565b50610a08604051806040016040528060048152602001632a24a2a960e11b815250876040518060400160405280600c81526020016b1513d5105317d05353d5539560a21b81525086610a009061295c565b965086611a1f565b6101925465010000000000900463ffffffff16600090815261019360209081526040808320815180830190925260048252632a24a2a960e11b92820192909252889290610a5490611ab0565b8152602081019190915260400160002055610192805465010000000000900463ffffffff169081906005610a8783612977565b91906101000a81548163ffffffff021916908363ffffffff16021790555050610ab6888263ffffffff16611ae0565b60008215610b0f5760004442604051602001610adc929190918252602082015260400190565b60408051601f1981840301815291905280516020909101209050610b0185600161299b565b610b0b90826129c9565b9150505b60408051600280825260608201909252600091816020015b6060815260200190600190039081610b275750506040805160028082526060820183529293506000929091602083019080368337019050509050604051806040016040528060048152602001632a24a2a960e11b81525082600081518110610b9157610b916129dd565b60200260200101819052506040518060400160405280600a81526020016910549515d3d492d7d25160b21b81525082600181518110610bd257610bd26129dd565b60200260200101819052508981600081518110610bf157610bf16129dd565b6020026020010181815250508281600181518110610c1157610c116129dd565b6020026020010181815250507f893f52173011681881e915ec9a2bef8164d895c2b95443b649ef62c91474c482848383604051610c50939291906129f3565b60405180910390a15050505050505050505050565b60008060001b610cba604051806040016040528060048152602001632a24a2a960e11b815250846040518060400160405280601081526020016f1512515497d490539113d357d352539560821b8152506119ca565b141592915050565b6107fa838383604051806020016040528060008152506113d1565b7f0000000000000000000000000000000000000000000000000000000000000000610d078161194d565b6040518060400160405280600d81526020016c20aaaa2427a924ad20aa24a7a760991b81525090610d4b5760405162461bcd60e51b8152600401610616919061241f565b50610d596101918484612280565b50505050565b7f0000000000000000000000000000000000000000000000000000000000000000610d898161194d565b6040518060400160405280600d81526020016c20aaaa2427a924ad20aa24a7a760991b81525090610dcd5760405162461bcd60e51b8152600401610616919061241f565b50610dda85858585611a1f565b5050505050565b6000610deb61160d565b546001600160a01b0316919050565b606454610100900460ff16610e155760645460ff1615610e19565b303b155b610e7c5760405162461bcd60e51b815260206004820152602e60248201527f496e697469616c697a61626c653a20636f6e747261637420697320616c72656160448201526d191e481a5b9a5d1a585b1a5e995960921b6064820152608401610616565b606454610100900460ff16158015610e9e576064805461ffff19166101011790555b610eb6610eb16040840160208501612460565b611c2e565b610f42610ec66060840184612a9a565b8080601f016020809104026020016040519081016040528093929190818152602001838380828437600092019190915250610f08925050506080850185612a9a565b8080601f016020809104026020016040519081016040528093929190818152602001838380828437600092019190915250611c8092505050565b610f57610f526020840184612460565b611cb1565b610f646040830183612a9a565b610f719161019191612280565b508015610f84576064805461ff00191690555b5050565b600081815260cb60205260408120546001600160a01b0316806105095760405162461bcd60e51b815260206004820152602960248201527f4552433732313a206f776e657220717565727920666f72206e6f6e657869737460448201526832b73a103a37b5b2b760b91b6064820152608401610616565b610191805461100d906128ba565b80601f0160208091040260200160405190810160405280929190818152602001828054611039906128ba565b80156110865780601f1061105b57610100808354040283529160200191611086565b820191906000526020600020905b81548152906001019060200180831161106957829003601f168201915b505050505081565b60006001600160a01b0382166110f95760405162461bcd60e51b815260206004820152602a60248201527f4552433732313a2062616c616e636520717565727920666f7220746865207a65604482015269726f206164647265737360b01b6064820152608401610616565b506001600160a01b0316600090815260cc602052604090205490565b60fb546001600160a01b0316331461116f5760405162461bcd60e51b815260206004820181905260248201527f4f776e61626c653a2063616c6c6572206973206e6f7420746865206f776e65726044820152606401610616565b6111796000611c2e565b565b7f00000000000000000000000000000000000000000000000000000000000000006111a58161194d565b6040518060400160405280600d81526020016c20aaaa2427a924ad20aa24a7a760991b815250906111e95760405162461bcd60e51b8152600401610616919061241f565b506111f98263ffffffff16611d27565b6000611220604051806040016040528060048152602001632a24a2a960e11b815250611ab0565b63ffffffff84166000908152610193602090815260408083208484528252808320548151808301835260048152632a24a2a960e11b818501528251808401909352600c83526b1513d5105317d05353d5539560a21b9383019390935293945061128b919084906119ca565b60001c90506112e8604051806040016040528060048152602001632a24a2a960e11b815250836040518060400160405280600c81526020016b1513d5105317d05353d5539560a21b815250846112e090612ae1565b945084611a1f565b63ffffffff851660008181526101936020908152604080832087845282528083209290925590519182527f3b651b2c4e677c2a060d746e3a06d84c64e2e9c8c268f92bd293357b7c5b9c01910160405180910390a15050505050565b6000610509604051806040016040528060048152602001632a24a2a960e11b815250836040518060400160405280601781526020017f544945525f45585452415f415254574f524b535f4e554d0000000000000000008152506119ca565b60006113af8484846119ca565b949350505050565b606060ca805461051e906128ba565b610f84338383611dce565b6113db33836116b3565b6113f75760405162461bcd60e51b8152600401610616906128f5565b610d5984848484611e9d565b60006113af8484848080601f016020809104026020016040519081016040528093929190818152602001838380828437600092019190915250611ed092505050565b60606000829050600061147482604051806040016040528060048152602001632a24a2a960e11b815250611ed0565b905061147f81611344565b156114ec5760006114b2836040518060400160405280600a81526020016910549515d3d492d7d25160b21b815250611ed0565b9050610191826114c183611f07565b6040516020016114d393929190612b92565b6040516020818303038152906040529350505050919050565b61019181604051602001611501929190612bcb565b60405160208183030381529060405292505050919050565b606061019160405160200161152e9190612be4565b604051602081830303815290604052905090565b60fb546001600160a01b0316331461159c5760405162461bcd60e51b815260206004820181905260248201527f4f776e61626c653a2063616c6c6572206973206e6f7420746865206f776e65726044820152606401610616565b6001600160a01b0381166116015760405162461bcd60e51b815260206004820152602660248201527f4f776e61626c653a206e6577206f776e657220697320746865207a65726f206160448201526564647265737360d01b6064820152608401610616565b61160a81611c2e565b50565b600061164061163d60017f797d7c7d0df25d67e029b044c5bcb2b89d68f6483382b5f85e64485950ed88d1612c08565b90565b905090565b600081815260cd6020526040902080546001600160a01b0319166001600160a01b038416908117909155819061167a82610f88565b6001600160a01b03167f8c5be1e5ebec7d5bd14f71427d1e84f3dd0314c0f7b2291e5b200ac8c7c3b92560405160405180910390a45050565b600081815260cb60205260408120546001600160a01b031661172c5760405162461bcd60e51b815260206004820152602c60248201527f4552433732313a206f70657261746f7220717565727920666f72206e6f6e657860448201526b34b9ba32b73a103a37b5b2b760a11b6064820152608401610616565b600061173783610f88565b9050806001600160a01b0316846001600160a01b031614806117725750836001600160a01b0316611767846105a1565b6001600160a01b0316145b806113af57506001600160a01b03808216600090815260ce602090815260408083209388168352929052205460ff166113af565b826001600160a01b03166117b982610f88565b6001600160a01b03161461181d5760405162461bcd60e51b815260206004820152602560248201527f4552433732313a207472616e736665722066726f6d20696e636f72726563742060448201526437bbb732b960d91b6064820152608401610616565b6001600160a01b03821661187f5760405162461bcd60e51b8152602060048201526024808201527f4552433732313a207472616e7366657220746f20746865207a65726f206164646044820152637265737360e01b6064820152608401610616565b61188a838383612005565b611895600082611645565b6001600160a01b038316600090815260cc602052604081208054600192906118be908490612c08565b90915550506001600160a01b038216600090815260cc602052604081208054600192906118ec90849061299b565b9091555050600081815260cb602052604080822080546001600160a01b0319166001600160a01b0386811691821790925591518493918716917fddf252ad1be2c89b69c2b068fc378daa952ba7f163c4a11628f55a4df523b3ef91a4505050565b61012d54604051631db05e9760e31b815233600482015230602482015260ff831660448201526000916001600160a01b03169063ed82f4b890606401602060405180830381865afa1580156119a6573d6000803e3d6000fd5b505050506040513d601f19601f820116820180604052508101906105099190612c1f565b600061019460006119da86611ab0565b815260200190815260200160002060008481526020019081526020016000206000016000611a0784611ab0565b81526020019081526020016000205490509392505050565b806101946000611a2e87611ab0565b815260200190815260200160002060008581526020019081526020016000206000016000611a5b85611ab0565b8152602001908152602001600020819055507fbbe342562e0ebf0c240ad60bed2824976fe39daef3367ce1386eda4639f9db3284848484604051611aa29493929190612c3c565b60405180910390a150505050565b600081604051602001611ac39190612c79565b604051602081830303815290604052805190602001209050919050565b6001600160a01b038216611b365760405162461bcd60e51b815260206004820181905260248201527f4552433732313a206d696e7420746f20746865207a65726f20616464726573736044820152606401610616565b600081815260cb60205260409020546001600160a01b031615611b9b5760405162461bcd60e51b815260206004820152601c60248201527f4552433732313a20746f6b656e20616c7265616479206d696e746564000000006044820152606401610616565b611ba760008383612005565b6001600160a01b038216600090815260cc60205260408120805460019290611bd090849061299b565b9091555050600081815260cb602052604080822080546001600160a01b0319166001600160a01b03861690811790915590518392907fddf252ad1be2c89b69c2b068fc378daa952ba7f163c4a11628f55a4df523b3ef908290a45050565b60fb80546001600160a01b038381166001600160a01b0319831681179093556040519116919082907f8be0079c531659141344cd1fd0a4f28419497f9722a3daafe3b4186f6b6457e090600090a35050565b606454610100900460ff16611ca75760405162461bcd60e51b815260040161061690612c95565b610f848282612134565b606454610100900460ff16611cd85760405162461bcd60e51b815260040161061690612c95565b61012d80546001600160a01b0319166001600160a01b0383169081179091556040519081527f4f8cfde3439a1a302c21ca51eec26086efbfd940b8c0279889fc6bb6e73ecc66906020016106de565b6000611d3282610f88565b9050611d4081600084612005565b611d4b600083611645565b6001600160a01b038116600090815260cc60205260408120805460019290611d74908490612c08565b9091555050600082815260cb602052604080822080546001600160a01b0319169055518391906001600160a01b038416907fddf252ad1be2c89b69c2b068fc378daa952ba7f163c4a11628f55a4df523b3ef908390a45050565b816001600160a01b0316836001600160a01b03161415611e305760405162461bcd60e51b815260206004820152601960248201527f4552433732313a20617070726f766520746f2063616c6c6572000000000000006044820152606401610616565b6001600160a01b03838116600081815260ce6020908152604080832094871680845294825291829020805460ff191686151590811790915591519182527f17307eab39ab6107e8899845ad3d59bd9653f200f220920489ca2b5937696c31910160405180910390a3505050565b611ea88484846117a6565b611eb484848484612182565b610d595760405162461bcd60e51b815260040161061690612ce0565b63ffffffff821660009081526101936020526040812081611ef084611ab0565b815260200190815260200160002054905092915050565b606081611f2b5750506040805180820190915260018152600360fc1b602082015290565b8160005b8115611f555780611f3f8161295c565b9150611f4e9050600a83612d32565b9150611f2f565b60008167ffffffffffffffff811115611f7057611f70612575565b6040519080825280601f01601f191660200182016040528015611f9a576020820181803683370190505b5090505b84156113af57611faf600183612c08565b9150611fbc600a866129c9565b611fc790603061299b565b60f81b818381518110611fdc57611fdc6129dd565b60200101906001600160f81b031916908160001a905350611ffe600a86612d32565b9450611f9e565b6001600160a01b0383161580159061202557506001600160a01b03821615155b156107fa57600061205282604051806040016040528060048152602001632a24a2a960e11b815250611ed0565b905060006120a4604051806040016040528060048152602001632a24a2a960e11b815250836040518060400160405280600f81526020016e49535f5452414e5346455241424c4560881b8152506119ca565b60001c90506000612107604051806040016040528060048152602001632a24a2a960e11b815250846040518060400160405280601981526020017f5452414e534645525f554e4c4f434b535f41545f484f555253000000000000008152506119ca565b9050600182148015612123575080612121610e1042612d32565b115b61212c57600080fd5b505050505050565b606454610100900460ff1661215b5760405162461bcd60e51b815260040161061690612c95565b815161216e9060c9906020850190612304565b5080516107fa9060ca906020840190612304565b60006001600160a01b0384163b1561227557604051630a85bd0160e11b81526001600160a01b0385169063150b7a02906121c6903390899088908890600401612d46565b6020604051808303816000875af1925050508015612201575060408051601f3d908101601f191682019092526121fe91810190612d83565b60015b61225b573d80801561222f576040519150601f19603f3d011682016040523d82523d6000602084013e612234565b606091505b5080516122535760405162461bcd60e51b815260040161061690612ce0565b805181602001fd5b6001600160e01b031916630a85bd0160e11b1490506113af565b506001949350505050565b82805461228c906128ba565b90600052602060002090601f0160209004810192826122ae57600085556122f4565b82601f106122c75782800160ff198235161785556122f4565b828001600101855582156122f4579182015b828111156122f45782358255916020019190600101906122d9565b50612300929150612378565b5090565b828054612310906128ba565b90600052602060002090601f01602090048101928261233257600085556122f4565b82601f1061234b57805160ff19168380011785556122f4565b828001600101855582156122f4579182015b828111156122f457825182559160200191906001019061235d565b5b808211156123005760008155600101612379565b6001600160e01b03198116811461160a57600080fd5b6000602082840312156123b557600080fd5b81356123c08161238d565b9392505050565b60005b838110156123e25781810151838201526020016123ca565b83811115610d595750506000910152565b6000815180845261240b8160208601602086016123c7565b601f01601f19169290920160200192915050565b6020815260006123c060208301846123f3565b60006020828403121561244457600080fd5b5035919050565b6001600160a01b038116811461160a57600080fd5b60006020828403121561247257600080fd5b81356123c08161244b565b6000806040838503121561249057600080fd5b823561249b8161244b565b946020939093013593505050565b6000806000606084860312156124be57600080fd5b83356124c98161244b565b925060208401356124d98161244b565b929592945050506040919091013590565b60008083601f8401126124fc57600080fd5b50813567ffffffffffffffff81111561251457600080fd5b60208301915083602082850101111561252c57600080fd5b9250929050565b6000806020838503121561254657600080fd5b823567ffffffffffffffff81111561255d57600080fd5b612569858286016124ea565b90969095509350505050565b634e487b7160e01b600052604160045260246000fd5b600067ffffffffffffffff808411156125a6576125a6612575565b604051601f8501601f19908116603f011681019082821181831017156125ce576125ce612575565b816040528093508581528686860111156125e757600080fd5b858560208301376000602087830101525050509392505050565b600082601f83011261261257600080fd5b6123c08383356020850161258b565b6000806000806080858703121561263757600080fd5b843567ffffffffffffffff8082111561264f57600080fd5b61265b88838901612601565b955060208701359450604087013591508082111561267857600080fd5b5061268587828801612601565b949793965093946060013593505050565b6000602082840312156126a857600080fd5b813567ffffffffffffffff8111156126bf57600080fd5b820160a081850312156123c057600080fd5b803563ffffffff811681146126e557600080fd5b919050565b6000602082840312156126fc57600080fd5b6123c0826126d1565b60008060006060848603121561271a57600080fd5b833567ffffffffffffffff8082111561273257600080fd5b61273e87838801612601565b945060208601359350604086013591508082111561275b57600080fd5b5061276886828701612601565b9150509250925092565b801515811461160a57600080fd5b6000806040838503121561279357600080fd5b823561279e8161244b565b915060208301356127ae81612772565b809150509250929050565b600080600080608085870312156127cf57600080fd5b84356127da8161244b565b935060208501356127ea8161244b565b925060408501359150606085013567ffffffffffffffff81111561280d57600080fd5b8501601f8101871361281e57600080fd5b61282d8782356020840161258b565b91505092959194509250565b60008060006040848603121561284e57600080fd5b612857846126d1565b9250602084013567ffffffffffffffff81111561287357600080fd5b61287f868287016124ea565b9497909650939450505050565b6000806040838503121561289f57600080fd5b82356128aa8161244b565b915060208301356127ae8161244b565b600181811c908216806128ce57607f821691505b602082108114156128ef57634e487b7160e01b600052602260045260246000fd5b50919050565b60208082526031908201527f4552433732313a207472616e736665722063616c6c6572206973206e6f74206f6040820152701ddb995c881b9bdc88185c1c1c9bdd9959607a1b606082015260800190565b634e487b7160e01b600052601160045260246000fd5b600060001982141561297057612970612946565b5060010190565b600063ffffffff8083168181141561299157612991612946565b6001019392505050565b600082198211156129ae576129ae612946565b500190565b634e487b7160e01b600052601260045260246000fd5b6000826129d8576129d86129b3565b500690565b634e487b7160e01b600052603260045260246000fd5b60006060820163ffffffff86168352602060608185015281865180845260808601915060808160051b870101935082880160005b82811015612a5557607f19888703018452612a438683516123f3565b95509284019290840190600101612a27565b50505050838203604085015284518083528186019282019060005b81811015612a8c57845183529383019391830191600101612a70565b509098975050505050505050565b6000808335601e19843603018112612ab157600080fd5b83018035915067ffffffffffffffff821115612acc57600080fd5b60200191503681900382131561252c57600080fd5b600081612af057612af0612946565b506000190190565b8054600090600181811c9080831680612b1257607f831692505b6020808410821415612b3457634e487b7160e01b600052602260045260246000fd5b818015612b485760018114612b5957612b86565b60ff19861689528489019650612b86565b60008881526020902060005b86811015612b7e5781548b820152908501908301612b65565b505084890196505b50505050505092915050565b6000612b9e8286612af8565b848152602f60f81b60208201528351612bbe8160218401602088016123c7565b0160210195945050505050565b6000612bd78285612af8565b9283525050602001919050565b6000612bf08284612af8565b6718dbdb9d1c9858dd60c21b81526008019392505050565b600082821015612c1a57612c1a612946565b500390565b600060208284031215612c3157600080fd5b81516123c081612772565b608081526000612c4f60808301876123f3565b8560208401528281036040840152612c6781866123f3565b91505082606083015295945050505050565b60008251612c8b8184602087016123c7565b9190910192915050565b6020808252602b908201527f496e697469616c697a61626c653a20636f6e7472616374206973206e6f74206960408201526a6e697469616c697a696e6760a81b606082015260800190565b60208082526032908201527f4552433732313a207472616e7366657220746f206e6f6e20455243373231526560408201527131b2b4bb32b91034b6b83632b6b2b73a32b960711b606082015260800190565b600082612d4157612d416129b3565b500490565b6001600160a01b0385811682528416602082015260408101839052608060608201819052600090612d79908301846123f3565b9695505050505050565b600060208284031215612d9557600080fd5b81516123c08161238d56fea2646970667358221220573cabba415a399cea79e6ca41b20b5cd3aed982ff17f00f5c83bb968fb7701364736f6c634300080c0033",
  "linkReferences": {},
  "deployedLinkReferences": {}
}