{
  "_format": "hh-sol-artifact-1",
  "contractName": "MockApp",
  "sourceName": "contracts/mock/MockApp.sol",
  "abi": [
    {
      "anonymous": false,
      "inputs": [
        {
          "indexed": false,
          "internalType": "contract IKernel",
          "name": "kernel",
          "type": "address"
        }
      ],
      "name": "Init",
      "type": "event"
    },
    {
      "anonymous": false,
      "inputs": [
        {
          "indexed": false,
          "internalType": "address",
          "name": "code",
          "type": "address"
        }
      ],
      "name": "Upgrade",
      "type": "event"
    },
    {
      "inputs": [
        {
          "internalType": "address",
          "name": "to",
          "type": "address"
        },
        {
          "internalType": "bytes",
          "name": "data",
          "type": "bytes"
        }
      ],
      "name": "appCall",
      "outputs": [
        {
          "internalType": "bytes",
          "name": "",
          "type": "bytes"
        }
      ],
      "stateMutability": "nonpayable",
      "type": "function"
    },
    {
      "inputs": [],
      "name": "implementation",
      "outputs": [
        {
          "internalType": "address",
          "name": "",
          "type": "address"
        }
      ],
      "stateMutability": "view",
      "type": "function"
    },
    {
      "inputs": [
        {
          "internalType": "contract IKernel",
          "name": "kernel",
          "type": "address"
        }
      ],
      "name": "initialize",
      "outputs": [],
      "stateMutability": "nonpayable",
      "type": "function"
    },
    {
      "inputs": [
        {
          "internalType": "address",
          "name": "appCode",
          "type": "address"
        }
      ],
      "name": "upgrade",
      "outputs": [],
      "stateMutability": "nonpayable",
      "type": "function"
    }
  ],
  "bytecode": "0x60a06040526064805460ff60b01b19169055610019610031565b60ff1660805234801561002b57600080fd5b506100cc565b606454600090600f600160b01b90910460ff161061005157610051610088565b60648054600160b01b900460ff1690601661006b8361009e565b91906101000a81548160ff021916908360ff160217905550905090565b634e487b7160e01b600052600160045260246000fd5b600060ff821660ff8114156100c357634e487b7160e01b600052601160045260246000fd5b60010192915050565b6080516105566100e4600039600050506105566000f3fe608060405234801561001057600080fd5b506004361061004c5760003560e01c80630900f010146100515780635c60da1b146100665780637e336cea1461008b578063c4d66de8146100ab575b600080fd5b61006461005f3660046103e2565b6100be565b005b61006e61017a565b6040516001600160a01b0390911681526020015b60405180910390f35b61009e610099366004610406565b610193565b60405161008291906104d8565b6100646100b93660046103e2565b61020c565b60645460408051808201909152600d81526c20aaaa2427a924ad20aa24a7a760991b6020820152906201000090046001600160a01b0316331461011d5760405162461bcd60e51b815260040161011491906104d8565b60405180910390fd5b50806101276102cf565b80546001600160a01b0319166001600160a01b0392831617905560405190821681527ff78721226efe9a1bb678189a16d1554928b9f2192e2cb93eeda83b79fa40007d906020015b60405180910390a150565b60006101846102cf565b546001600160a01b0316919050565b6060600080856001600160a01b031685856040516101b29291906104eb565b6000604051808303816000865af19150503d80600081146101ef576040519150601f19603f3d011682016040523d82523d6000602084013e6101f4565b606091505b50915091508161020357600080fd5b95945050505050565b606454610100900460ff166102275760645460ff161561022b565b303b155b61028e5760405162461bcd60e51b815260206004820152602e60248201527f496e697469616c697a61626c653a20636f6e747261637420697320616c72656160448201526d191e481a5b9a5d1a585b1a5e995960921b6064820152608401610114565b606454610100900460ff161580156102b0576064805461ffff19166101011790555b6102b982610307565b80156102cb576064805461ff00191690555b5050565b60006103026102ff60017f797d7c7d0df25d67e029b044c5bcb2b89d68f6483382b5f85e64485950ed88d16104fb565b90565b905090565b606454610100900460ff166103725760405162461bcd60e51b815260206004820152602b60248201527f496e697469616c697a61626c653a20636f6e7472616374206973206e6f74206960448201526a6e697469616c697a696e6760a81b6064820152608401610114565b6064805462010000600160b01b031916620100006001600160a01b038416908102919091179091556040519081527f4f8cfde3439a1a302c21ca51eec26086efbfd940b8c0279889fc6bb6e73ecc669060200161016f565b6001600160a01b03811681146103df57600080fd5b50565b6000602082840312156103f457600080fd5b81356103ff816103ca565b9392505050565b60008060006040848603121561041b57600080fd5b8335610426816103ca565b9250602084013567ffffffffffffffff8082111561044357600080fd5b818601915086601f83011261045757600080fd5b81358181111561046657600080fd5b87602082850101111561047857600080fd5b6020830194508093505050509250925092565b6000815180845260005b818110156104b157602081850181015186830182015201610495565b818111156104c3576000602083870101525b50601f01601f19169290920160200192915050565b6020815260006103ff602083018461048b565b8183823760009101908152919050565b60008282101561051b57634e487b7160e01b600052601160045260246000fd5b50039056fea2646970667358221220109c1272adacc04c2bf19b9f6b580092fb84cb783dd79e5486ba4199dabc4f4a64736f6c634300080c0033",
  "linkReferences": {},
  "deployedLinkReferences": {}
}