{
  "_format": "hh-sol-artifact-1",
  "contractName": "ERC721BaseSale",
  "sourceName": "contracts/apps/ERC721Sale/ERC721BaseSale.sol",
  "abi": [
    {
      "anonymous": false,
      "inputs": [
        {
          "indexed": false,
          "internalType": "contract IKernel",
          "name": "kernel",
          "type": "address"
        }
      ],
      "name": "Init",
      "type": "event"
    },
    {
      "anonymous": false,
      "inputs": [
        {
          "indexed": false,
          "internalType": "address",
          "name": "code",
          "type": "address"
        }
      ],
      "name": "Upgrade",
      "type": "event"
    },
    {
      "inputs": [],
      "name": "CONTROLLER",
      "outputs": [
        {
          "internalType": "uint8",
          "name": "",
          "type": "uint8"
        }
      ],
      "stateMutability": "view",
      "type": "function"
    },
    {
      "inputs": [],
      "name": "implementation",
      "outputs": [
        {
          "internalType": "address",
          "name": "",
          "type": "address"
        }
      ],
      "stateMutability": "view",
      "type": "function"
    },
    {
      "inputs": [],
      "name": "isActive",
      "outputs": [
        {
          "internalType": "bool",
          "name": "",
          "type": "bool"
        }
      ],
      "stateMutability": "view",
      "type": "function"
    },
    {
      "inputs": [
        {
          "internalType": "bool",
          "name": "isActive_",
          "type": "bool"
        }
      ],
      "name": "setActive",
      "outputs": [],
      "stateMutability": "nonpayable",
      "type": "function"
    },
    {
      "inputs": [
        {
          "internalType": "bytes32[]",
          "name": "tierValues",
          "type": "bytes32[]"
        },
        {
          "internalType": "uint256[]",
          "name": "tierPrices_",
          "type": "uint256[]"
        }
      ],
      "name": "setPaymentPolicy",
      "outputs": [],
      "stateMutability": "nonpayable",
      "type": "function"
    },
    {
      "inputs": [
        {
          "internalType": "bytes32",
          "name": "",
          "type": "bytes32"
        }
      ],
      "name": "tierPrices",
      "outputs": [
        {
          "internalType": "uint256",
          "name": "",
          "type": "uint256"
        }
      ],
      "stateMutability": "view",
      "type": "function"
    },
    {
      "inputs": [
        {
          "internalType": "address",
          "name": "appCode",
          "type": "address"
        }
      ],
      "name": "upgrade",
      "outputs": [],
      "stateMutability": "nonpayable",
      "type": "function"
    }
  ],
  "bytecode": "0x60a06040526064805460ff60b01b19169055610019610031565b60ff1660805234801561002b57600080fd5b506100cc565b606454600090600f600160b01b90910460ff161061005157610051610088565b60648054600160b01b900460ff1690601661006b8361009e565b91906101000a81548160ff021916908360ff160217905550905090565b634e487b7160e01b600052600160045260246000fd5b600060ff821660ff8114156100c357634e487b7160e01b600052601160045260246000fd5b60010192915050565b6080516106ce6100f5600039600081816101320152818161023c01526102bf01526106ce6000f3fe608060405234801561001057600080fd5b506004361061007d5760003560e01c80636e13e4301161005b5780636e13e430146100d9578063acec338a14610107578063c0c6d00e1461011a578063ee0fc1211461012d57600080fd5b80630900f0101461008257806322f3e2d4146100975780635c60da1b146100b9575b600080fd5b610095610090366004610499565b610166565b005b60c9546100a49060ff1681565b60405190151581526020015b60405180910390f35b6100c1610221565b6040516001600160a01b0390911681526020016100b0565b6100f96100e73660046104c9565b60c86020526000908152604090205481565b6040519081526020016100b0565b6100956101153660046104f3565b61023a565b61009561012836600461055c565b6102bd565b6101547f000000000000000000000000000000000000000000000000000000000000000081565b60405160ff90911681526020016100b0565b60645460408051808201909152600d81526c20aaaa2427a924ad20aa24a7a760991b6020820152906201000090046001600160a01b031633146101c55760405162461bcd60e51b81526004016101bc91906105c8565b60405180910390fd5b50806101cf6103d9565b80546001600160a01b0319166001600160a01b0392831617905560405190821681527ff78721226efe9a1bb678189a16d1554928b9f2192e2cb93eeda83b79fa40007d9060200160405180910390a150565b600061022b6103d9565b546001600160a01b0316919050565b7f000000000000000000000000000000000000000000000000000000000000000061026481610411565b6040518060400160405280600d81526020016c20aaaa2427a924ad20aa24a7a760991b815250906102a85760405162461bcd60e51b81526004016101bc91906105c8565b505060c9805460ff1916911515919091179055565b7f00000000000000000000000000000000000000000000000000000000000000006102e781610411565b6040518060400160405280600d81526020016c20aaaa2427a924ad20aa24a7a760991b8152509061032b5760405162461bcd60e51b81526004016101bc91906105c8565b5060408051808201909152600a8152692b20a624a220aa24a7a760b11b602082015284831461036d5760405162461bcd60e51b81526004016101bc91906105c8565b5060005b8085146103d15783838281811061038a5761038a61061d565b9050602002013560c860008888858181106103a7576103a761061d565b90506020020135815260200190815260200160002081905550806103ca90610649565b9050610371565b505050505050565b600061040c61040960017f797d7c7d0df25d67e029b044c5bcb2b89d68f6483382b5f85e64485950ed88d1610664565b90565b905090565b60648054604051631db05e9760e31b815233600482015230602482015260ff84166044820152600092620100009092046001600160a01b03169163ed82f4b89101602060405180830381865afa15801561046f573d6000803e3d6000fd5b505050506040513d601f19601f82011682018060405250810190610493919061067b565b92915050565b6000602082840312156104ab57600080fd5b81356001600160a01b03811681146104c257600080fd5b9392505050565b6000602082840312156104db57600080fd5b5035919050565b80151581146104f057600080fd5b50565b60006020828403121561050557600080fd5b81356104c2816104e2565b60008083601f84011261052257600080fd5b50813567ffffffffffffffff81111561053a57600080fd5b6020830191508360208260051b850101111561055557600080fd5b9250929050565b6000806000806040858703121561057257600080fd5b843567ffffffffffffffff8082111561058a57600080fd5b61059688838901610510565b909650945060208701359150808211156105af57600080fd5b506105bc87828801610510565b95989497509550505050565b600060208083528351808285015260005b818110156105f5578581018301518582016040015282016105d9565b81811115610607576000604083870101525b50601f01601f1916929092016040019392505050565b634e487b7160e01b600052603260045260246000fd5b634e487b7160e01b600052601160045260246000fd5b600060001982141561065d5761065d610633565b5060010190565b60008282101561067657610676610633565b500390565b60006020828403121561068d57600080fd5b81516104c2816104e256fea26469706673582212206543a22c0f37d8cbfcbfaba8e7dabc87714d477300f86c6a664074bf9261dad064736f6c634300080c0033",
  "linkReferences": {},
  "deployedLinkReferences": {}
}