{
  "_format": "hh-sol-artifact-1",
  "contractName": "AdminController",
  "sourceName": "contracts/apps/AdminController/AdminController.sol",
  "abi": [
    {
      "anonymous": false,
      "inputs": [
        {
          "indexed": false,
          "internalType": "address",
          "name": "admin",
          "type": "address"
        }
      ],
      "name": "AddAdmin",
      "type": "event"
    },
    {
      "anonymous": false,
      "inputs": [
        {
          "indexed": false,
          "internalType": "contract IKernel",
          "name": "kernel",
          "type": "address"
        }
      ],
      "name": "Init",
      "type": "event"
    },
    {
      "anonymous": false,
      "inputs": [
        {
          "indexed": false,
          "internalType": "address",
          "name": "admin",
          "type": "address"
        }
      ],
      "name": "RemoveAdmin",
      "type": "event"
    },
    {
      "anonymous": false,
      "inputs": [
        {
          "indexed": false,
          "internalType": "address",
          "name": "code",
          "type": "address"
        }
      ],
      "name": "Upgrade",
      "type": "event"
    },
    {
      "inputs": [],
      "name": "SUDO",
      "outputs": [
        {
          "internalType": "uint8",
          "name": "",
          "type": "uint8"
        }
      ],
      "stateMutability": "view",
      "type": "function"
    },
    {
      "inputs": [
        {
          "internalType": "address",
          "name": "adminAddress",
          "type": "address"
        }
      ],
      "name": "addAdmin",
      "outputs": [],
      "stateMutability": "nonpayable",
      "type": "function"
    },
    {
      "inputs": [],
      "name": "adminAddresses",
      "outputs": [
        {
          "internalType": "address[]",
          "name": "",
          "type": "address[]"
        }
      ],
      "stateMutability": "view",
      "type": "function"
    },
    {
      "inputs": [
        {
          "internalType": "uint32[]",
          "name": "tokenIds",
          "type": "uint32[]"
        }
      ],
      "name": "batchBurn",
      "outputs": [],
      "stateMutability": "nonpayable",
      "type": "function"
    },
    {
      "inputs": [
        {
          "internalType": "address[]",
          "name": "addresses",
          "type": "address[]"
        },
        {
          "internalType": "bytes[]",
          "name": "data",
          "type": "bytes[]"
        }
      ],
      "name": "batchCall",
      "outputs": [
        {
          "internalType": "bytes[]",
          "name": "results",
          "type": "bytes[]"
        }
      ],
      "stateMutability": "nonpayable",
      "type": "function"
    },
    {
      "inputs": [
        {
          "internalType": "address[]",
          "name": "to",
          "type": "address[]"
        },
        {
          "internalType": "bytes32[]",
          "name": "tierValues",
          "type": "bytes32[]"
        }
      ],
      "name": "batchMint",
      "outputs": [],
      "stateMutability": "nonpayable",
      "type": "function"
    },
    {
      "inputs": [
        {
          "internalType": "uint32",
          "name": "tokenId",
          "type": "uint32"
        }
      ],
      "name": "burn",
      "outputs": [],
      "stateMutability": "nonpayable",
      "type": "function"
    },
    {
      "inputs": [],
      "name": "implementation",
      "outputs": [
        {
          "internalType": "address",
          "name": "",
          "type": "address"
        }
      ],
      "stateMutability": "view",
      "type": "function"
    },
    {
      "inputs": [
        {
          "internalType": "contract IKernel",
          "name": "kernel",
          "type": "address"
        },
        {
          "internalType": "address[]",
          "name": "admins",
          "type": "address[]"
        }
      ],
      "name": "initialize",
      "outputs": [],
      "stateMutability": "nonpayable",
      "type": "function"
    },
    {
      "inputs": [
        {
          "internalType": "address",
          "name": "adminAddress",
          "type": "address"
        }
      ],
      "name": "isAdmin",
      "outputs": [
        {
          "internalType": "bool",
          "name": "",
          "type": "bool"
        }
      ],
      "stateMutability": "view",
      "type": "function"
    },
    {
      "inputs": [
        {
          "internalType": "address",
          "name": "to",
          "type": "address"
        },
        {
          "internalType": "bytes32",
          "name": "tierValue",
          "type": "bytes32"
        }
      ],
      "name": "mint",
      "outputs": [],
      "stateMutability": "nonpayable",
      "type": "function"
    },
    {
      "inputs": [
        {
          "internalType": "bytes32[]",
          "name": "tierValues",
          "type": "bytes32[]"
        },
        {
          "internalType": "uint256[]",
          "name": "tierPrices_",
          "type": "uint256[]"
        }
      ],
      "name": "openSale__setPaymentPolicy",
      "outputs": [],
      "stateMutability": "nonpayable",
      "type": "function"
    },
    {
      "inputs": [
        {
          "internalType": "address",
          "name": "adminAddress",
          "type": "address"
        }
      ],
      "name": "removeAdmin",
      "outputs": [],
      "stateMutability": "nonpayable",
      "type": "function"
    },
    {
      "inputs": [
        {
          "internalType": "address",
          "name": "appCode",
          "type": "address"
        }
      ],
      "name": "upgrade",
      "outputs": [],
      "stateMutability": "nonpayable",
      "type": "function"
    },
    {
      "inputs": [
        {
          "internalType": "bytes32",
          "name": "merkleRoot",
          "type": "bytes32"
        },
        {
          "internalType": "bytes",
          "name": "merkleProofIpfsHash",
          "type": "bytes"
        }
      ],
      "name": "whitelistSale__setMerkleTree",
      "outputs": [],
      "stateMutability": "nonpayable",
      "type": "function"
    },
    {
      "inputs": [
        {
          "internalType": "bytes32[]",
          "name": "tierValues",
          "type": "bytes32[]"
        },
        {
          "internalType": "uint256[]",
          "name": "tierPrices_",
          "type": "uint256[]"
        }
      ],
      "name": "whitelistSale__setPaymentPolicy",
      "outputs": [],
      "stateMutability": "nonpayable",
      "type": "function"
    }
  ],
  "bytecode": "0x60a06040526064805460ff60b01b191690556200001b62000035565b60ff166080523480156200002e57600080fd5b50620000d6565b606454600090600f600160b01b90910460ff161062000058576200005862000091565b60648054600160b01b900460ff169060166200007483620000a7565b91906101000a81548160ff021916908360ff160217905550905090565b634e487b7160e01b600052600160045260246000fd5b600060ff821660ff811415620000cd57634e487b7160e01b600052601160045260246000fd5b60010192915050565b608051611d79620001386000396000818161023a0152818161035e015281816104710152818161060b015281816107f40152818161098901528181610a8b01528181610c1001528181610de601528181610fd3015261116b0152611d796000f3fe608060405234801561001057600080fd5b50600436106101005760003560e01c80637048027511610097578063b762c90511610066578063b762c9051461020f578063c648afad14610222578063f7de6b9614610235578063ff08e07b1461026e57600080fd5b806370480275146101c35780637a5984c4146101d657806392e50765146101e9578063946d9204146101fc57600080fd5b8063329aad12116100d3578063329aad1214610168578063351c63621461017d5780635c60da1b146101905780636119cfd6146101b057600080fd5b80630900f010146101055780631785f53c1461011a57806324d7806c1461012d5780632cfd300514610155575b600080fd5b610118610113366004611830565b61028e565b005b610118610128366004611830565b61034a565b61014061013b366004611830565b61044c565b60405190151581526020015b60405180910390f35b61011861016336600461184d565b61045d565b6101706105e6565b60405161014c9190611879565b61011861018b366004611912565b6105f7565b6101986107c7565b6040516001600160a01b03909116815260200161014c565b6101186101be366004611954565b6107e0565b6101186101d1366004611830565b610975565b6101186101e43660046119c0565b610a77565b6101186101f7366004611954565b610bfc565b61011861020a3660046119e6565b610cbc565b61011861021d366004611954565b610dd2565b610118610230366004611a3b565b610fbf565b61025c7f000000000000000000000000000000000000000000000000000000000000000081565b60405160ff909116815260200161014c565b61028161027c366004611954565b611155565b60405161014c9190611b0f565b60645460408051808201909152600d81526c20aaaa2427a924ad20aa24a7a760991b6020820152906201000090046001600160a01b031633146102ed5760405162461bcd60e51b81526004016102e49190611b71565b60405180910390fd5b50806102f7611314565b80546001600160a01b0319166001600160a01b0392831617905560405190821681527ff78721226efe9a1bb678189a16d1554928b9f2192e2cb93eeda83b79fa40007d906020015b60405180910390a150565b61035333611347565b8061038257506103827f0000000000000000000000000000000000000000000000000000000000000000611354565b6040518060400160405280600d81526020016c20aaaa2427a924ad20aa24a7a760991b815250906103c65760405162461bcd60e51b81526004016102e49190611b71565b506103d260c8826113d6565b6040518060400160405280600981526020016812539590549250539560ba1b815250906104125760405162461bcd60e51b81526004016102e49190611b71565b506040516001600160a01b03821681527f753f40ca3312b2408759a67875b367955e7baa221daf08aa3d643d96202ac12b9060200161033f565b600061045782611347565b92915050565b61046633611347565b8061049557506104957f0000000000000000000000000000000000000000000000000000000000000000611354565b6040518060400160405280600d81526020016c20aaaa2427a924ad20aa24a7a760991b815250906104d95760405162461bcd60e51b81526004016102e49190611b71565b506064546040516545524337323160d01b6020820152620100009091046001600160a01b03169063dae3f63490602601604051602081830303815290604052805190602001206040518263ffffffff1660e01b815260040161053d91815260200190565b602060405180830381865afa15801561055a573d6000803e3d6000fd5b505050506040513d601f19601f8201168201806040525081019061057e9190611b84565b604051632cfd300560e01b81526001600160a01b038481166004830152602482018490529190911690632cfd300590604401600060405180830381600087803b1580156105ca57600080fd5b505af11580156105de573d6000803e3d6000fd5b505050505050565b60606105f260c86113f2565b905090565b61060033611347565b8061062f575061062f7f0000000000000000000000000000000000000000000000000000000000000000611354565b6040518060400160405280600d81526020016c20aaaa2427a924ad20aa24a7a760991b815250906106735760405162461bcd60e51b81526004016102e49190611b71565b5060005b818110156107c2576064546040516545524337323160d01b6020820152620100009091046001600160a01b03169063dae3f63490602601604051602081830303815290604052805190602001206040518263ffffffff1660e01b81526004016106e291815260200190565b602060405180830381865afa1580156106ff573d6000803e3d6000fd5b505050506040513d601f19601f820116820180604052508101906107239190611b84565b6001600160a01b0316637a5984c484848481811061074357610743611ba1565b905060200201602081019061075891906119c0565b6040516001600160e01b031960e084901b16815263ffffffff919091166004820152602401600060405180830381600087803b15801561079757600080fd5b505af11580156107ab573d6000803e3d6000fd5b5050505080806107ba90611bcd565b915050610677565b505050565b60006107d1611314565b546001600160a01b0316919050565b6107e933611347565b8061081857506108187f0000000000000000000000000000000000000000000000000000000000000000611354565b6040518060400160405280600d81526020016c20aaaa2427a924ad20aa24a7a760991b8152509061085c5760405162461bcd60e51b81526004016102e49190611b71565b506064546040516f4552433732315f4f50454e5f53414c4560801b6020820152620100009091046001600160a01b03169063dae3f634906030015b604051602081830303815290604052805190602001206040518263ffffffff1660e01b81526004016108cb91815260200190565b602060405180830381865afa1580156108e8573d6000803e3d6000fd5b505050506040513d601f19601f8201168201806040525081019061090c9190611b84565b6001600160a01b031663c0c6d00e858585856040518563ffffffff1660e01b815260040161093d9493929190611c1e565b600060405180830381600087803b15801561095757600080fd5b505af115801561096b573d6000803e3d6000fd5b5050505050505050565b61097e33611347565b806109ad57506109ad7f0000000000000000000000000000000000000000000000000000000000000000611354565b6040518060400160405280600d81526020016c20aaaa2427a924ad20aa24a7a760991b815250906109f15760405162461bcd60e51b81526004016102e49190611b71565b506109fd60c8826113ff565b6040518060400160405280600981526020016812539590549250539560ba1b81525090610a3d5760405162461bcd60e51b81526004016102e49190611b71565b506040516001600160a01b03821681527fad6de4452a631e641cb59902236607946ce9272b9b981f2f80e8d129cb9084ba9060200161033f565b610a8033611347565b80610aaf5750610aaf7f0000000000000000000000000000000000000000000000000000000000000000611354565b6040518060400160405280600d81526020016c20aaaa2427a924ad20aa24a7a760991b81525090610af35760405162461bcd60e51b81526004016102e49190611b71565b506064546040516545524337323160d01b6020820152620100009091046001600160a01b03169063dae3f63490602601604051602081830303815290604052805190602001206040518263ffffffff1660e01b8152600401610b5791815260200190565b602060405180830381865afa158015610b74573d6000803e3d6000fd5b505050506040513d601f19601f82011682018060405250810190610b989190611b84565b604051631e96613160e21b815263ffffffff831660048201526001600160a01b039190911690637a5984c490602401600060405180830381600087803b158015610be157600080fd5b505af1158015610bf5573d6000803e3d6000fd5b5050505050565b610c0533611347565b80610c345750610c347f0000000000000000000000000000000000000000000000000000000000000000611354565b6040518060400160405280600d81526020016c20aaaa2427a924ad20aa24a7a760991b81525090610c785760405162461bcd60e51b81526004016102e49190611b71565b50606454604051744552433732315f57484954454c4953545f53414c4560581b6020820152620100009091046001600160a01b03169063dae3f63490603501610897565b606454610100900460ff16610cd75760645460ff1615610cdb565b303b155b610d3e5760405162461bcd60e51b815260206004820152602e60248201527f496e697469616c697a61626c653a20636f6e747261637420697320616c72656160448201526d191e481a5b9a5d1a585b1a5e995960921b60648201526084016102e4565b606454610100900460ff16158015610d60576064805461ffff19166101011790555b610d6984611414565b60005b82811015610db957610da6848483818110610d8957610d89611ba1565b9050602002016020810190610d9e9190611830565b60c8906113ff565b5080610db181611bcd565b915050610d6c565b508015610dcc576064805461ff00191690555b50505050565b610ddb33611347565b80610e0a5750610e0a7f0000000000000000000000000000000000000000000000000000000000000000611354565b6040518060400160405280600d81526020016c20aaaa2427a924ad20aa24a7a760991b81525090610e4e5760405162461bcd60e51b81526004016102e49190611b71565b5060005b83811015610bf5576064546040516545524337323160d01b6020820152620100009091046001600160a01b03169063dae3f63490602601604051602081830303815290604052805190602001206040518263ffffffff1660e01b8152600401610ebd91815260200190565b602060405180830381865afa158015610eda573d6000803e3d6000fd5b505050506040513d601f19601f82011682018060405250810190610efe9190611b84565b6001600160a01b0316632cfd3005868684818110610f1e57610f1e611ba1565b9050602002016020810190610f339190611830565b858585818110610f4557610f45611ba1565b6040516001600160e01b031960e087901b1681526001600160a01b0390941660048501526020029190910135602483015250604401600060405180830381600087803b158015610f9457600080fd5b505af1158015610fa8573d6000803e3d6000fd5b505050508080610fb790611bcd565b915050610e52565b610fc833611347565b80610ff75750610ff77f0000000000000000000000000000000000000000000000000000000000000000611354565b6040518060400160405280600d81526020016c20aaaa2427a924ad20aa24a7a760991b8152509061103b5760405162461bcd60e51b81526004016102e49190611b71565b50606454604051744552433732315f57484954454c4953545f53414c4560581b6020820152620100009091046001600160a01b03169063dae3f63490603501604051602081830303815290604052805190602001206040518263ffffffff1660e01b81526004016110ae91815260200190565b602060405180830381865afa1580156110cb573d6000803e3d6000fd5b505050506040513d601f19601f820116820180604052508101906110ef9190611b84565b6001600160a01b031663b00f24cf8484846040518463ffffffff1660e01b815260040161111e93929190611c45565b600060405180830381600087803b15801561113857600080fd5b505af115801561114c573d6000803e3d6000fd5b50505050505050565b606061116033611347565b8061118f575061118f7f0000000000000000000000000000000000000000000000000000000000000000611354565b6040518060400160405280600d81526020016c20aaaa2427a924ad20aa24a7a760991b815250906111d35760405162461bcd60e51b81526004016102e49190611b71565b508167ffffffffffffffff8111156111ed576111ed611c7b565b60405190808252806020026020018201604052801561122057816020015b606081526020019060019003908161120b5790505b50905060005b8281101561130b576112db86868381811061124357611243611ba1565b90506020020160208101906112589190611830565b85858481811061126a5761126a611ba1565b905060200281019061127c9190611c91565b8080601f0160208091040260200160405190810160405280939291908181526020018383808284376000920191909152505060408051808201909152600d81526c20aaaa2427a924ad20aa24a7a760991b602082015291506114d79050565b8282815181106112ed576112ed611ba1565b6020026020010181905250808061130390611bcd565b915050611226565b50949350505050565b60006105f261134460017f797d7c7d0df25d67e029b044c5bcb2b89d68f6483382b5f85e64485950ed88d1611cd8565b90565b600061045760c8836114ee565b60648054604051631db05e9760e31b815233600482015230602482015260ff84166044820152600092620100009092046001600160a01b03169163ed82f4b89101602060405180830381865afa1580156113b2573d6000803e3d6000fd5b505050506040513d601f19601f820116820180604052508101906104579190611cef565b60006113eb836001600160a01b038416611510565b9392505050565b606060006113eb83611603565b60006113eb836001600160a01b03841661165f565b606454610100900460ff1661147f5760405162461bcd60e51b815260206004820152602b60248201527f496e697469616c697a61626c653a20636f6e7472616374206973206e6f74206960448201526a6e697469616c697a696e6760a81b60648201526084016102e4565b6064805462010000600160b01b031916620100006001600160a01b038416908102919091179091556040519081527f4f8cfde3439a1a302c21ca51eec26086efbfd940b8c0279889fc6bb6e73ecc669060200161033f565b60606114e684846000856116ae565b949350505050565b6001600160a01b038116600090815260018301602052604081205415156113eb565b600081815260018301602052604081205480156115f9576000611534600183611cd8565b855490915060009061154890600190611cd8565b90508181146115ad57600086600001828154811061156857611568611ba1565b906000526020600020015490508087600001848154811061158b5761158b611ba1565b6000918252602080832090910192909255918252600188019052604090208390555b85548690806115be576115be611d11565b600190038181906000526020600020016000905590558560010160008681526020019081526020016000206000905560019350505050610457565b6000915050610457565b60608160000180548060200260200160405190810160405280929190818152602001828054801561165357602002820191906000526020600020905b81548152602001906001019080831161163f575b50505050509050919050565b60008181526001830160205260408120546116a657508154600181810184556000848152602080822090930184905584548482528286019093526040902091909155610457565b506000610457565b60608247101561170f5760405162461bcd60e51b815260206004820152602660248201527f416464726573733a20696e73756666696369656e742062616c616e636520666f6044820152651c8818d85b1b60d21b60648201526084016102e4565b6001600160a01b0385163b6117665760405162461bcd60e51b815260206004820152601d60248201527f416464726573733a2063616c6c20746f206e6f6e2d636f6e747261637400000060448201526064016102e4565b600080866001600160a01b031685876040516117829190611d27565b60006040518083038185875af1925050503d80600081146117bf576040519150601f19603f3d011682016040523d82523d6000602084013e6117c4565b606091505b50915091506117d48282866117df565b979650505050505050565b606083156117ee5750816113eb565b8251156117fe5782518084602001fd5b8160405162461bcd60e51b81526004016102e49190611b71565b6001600160a01b038116811461182d57600080fd5b50565b60006020828403121561184257600080fd5b81356113eb81611818565b6000806040838503121561186057600080fd5b823561186b81611818565b946020939093013593505050565b6020808252825182820181905260009190848201906040850190845b818110156118ba5783516001600160a01b031683529284019291840191600101611895565b50909695505050505050565b60008083601f8401126118d857600080fd5b50813567ffffffffffffffff8111156118f057600080fd5b6020830191508360208260051b850101111561190b57600080fd5b9250929050565b6000806020838503121561192557600080fd5b823567ffffffffffffffff81111561193c57600080fd5b611948858286016118c6565b90969095509350505050565b6000806000806040858703121561196a57600080fd5b843567ffffffffffffffff8082111561198257600080fd5b61198e888389016118c6565b909650945060208701359150808211156119a757600080fd5b506119b4878288016118c6565b95989497509550505050565b6000602082840312156119d257600080fd5b813563ffffffff811681146113eb57600080fd5b6000806000604084860312156119fb57600080fd5b8335611a0681611818565b9250602084013567ffffffffffffffff811115611a2257600080fd5b611a2e868287016118c6565b9497909650939450505050565b600080600060408486031215611a5057600080fd5b83359250602084013567ffffffffffffffff80821115611a6f57600080fd5b818601915086601f830112611a8357600080fd5b813581811115611a9257600080fd5b876020828501011115611aa457600080fd5b6020830194508093505050509250925092565b60005b83811015611ad2578181015183820152602001611aba565b83811115610dcc5750506000910152565b60008151808452611afb816020860160208601611ab7565b601f01601f19169290920160200192915050565b6000602080830181845280855180835260408601915060408160051b870101925083870160005b82811015611b6457603f19888603018452611b52858351611ae3565b94509285019290850190600101611b36565b5092979650505050505050565b6020815260006113eb6020830184611ae3565b600060208284031215611b9657600080fd5b81516113eb81611818565b634e487b7160e01b600052603260045260246000fd5b634e487b7160e01b600052601160045260246000fd5b6000600019821415611be157611be1611bb7565b5060010190565b81835260006001600160fb1b03831115611c0157600080fd5b8260051b8083602087013760009401602001938452509192915050565b604081526000611c32604083018688611be8565b82810360208401526117d4818587611be8565b83815260406020820152816040820152818360608301376000818301606090810191909152601f909201601f1916010192915050565b634e487b7160e01b600052604160045260246000fd5b6000808335601e19843603018112611ca857600080fd5b83018035915067ffffffffffffffff821115611cc357600080fd5b60200191503681900382131561190b57600080fd5b600082821015611cea57611cea611bb7565b500390565b600060208284031215611d0157600080fd5b815180151581146113eb57600080fd5b634e487b7160e01b600052603160045260246000fd5b60008251611d39818460208701611ab7565b919091019291505056fea264697066735822122094b3902565eca5ab819712165ee94b41c9539fa92f2c04bebc62971a9bf3e76864736f6c634300080c0033",
  "linkReferences": {},
  "deployedLinkReferences": {}
}