{
  "_format": "hh-sol-artifact-1",
  "contractName": "ACL",
  "sourceName": "contracts/kernel/ACL.sol",
  "abi": [
    {
      "anonymous": false,
      "inputs": [
        {
          "indexed": false,
          "internalType": "contract IKernel",
          "name": "kernel",
          "type": "address"
        }
      ],
      "name": "Init",
      "type": "event"
    },
    {
      "anonymous": false,
      "inputs": [
        {
          "indexed": false,
          "internalType": "address",
          "name": "code",
          "type": "address"
        }
      ],
      "name": "Upgrade",
      "type": "event"
    },
    {
      "inputs": [],
      "name": "KERNEL_ADMIN",
      "outputs": [
        {
          "internalType": "uint8",
          "name": "",
          "type": "uint8"
        }
      ],
      "stateMutability": "view",
      "type": "function"
    },
    {
      "inputs": [
        {
          "internalType": "bytes32",
          "name": "requesterAppId",
          "type": "bytes32"
        },
        {
          "internalType": "bytes32",
          "name": "appId",
          "type": "bytes32"
        },
        {
          "internalType": "uint8",
          "name": "permissionId",
          "type": "uint8"
        }
      ],
      "name": "addPermission",
      "outputs": [],
      "stateMutability": "nonpayable",
      "type": "function"
    },
    {
      "inputs": [
        {
          "internalType": "bytes32",
          "name": "entity",
          "type": "bytes32"
        },
        {
          "internalType": "bytes32",
          "name": "app",
          "type": "bytes32"
        }
      ],
      "name": "getPermissions",
      "outputs": [
        {
          "internalType": "bytes2",
          "name": "",
          "type": "bytes2"
        }
      ],
      "stateMutability": "view",
      "type": "function"
    },
    {
      "inputs": [
        {
          "internalType": "address",
          "name": "entityAddress",
          "type": "address"
        },
        {
          "internalType": "address",
          "name": "appAddress",
          "type": "address"
        },
        {
          "internalType": "uint8",
          "name": "permissionId",
          "type": "uint8"
        }
      ],
      "name": "hasPermission",
      "outputs": [
        {
          "internalType": "bool",
          "name": "",
          "type": "bool"
        }
      ],
      "stateMutability": "view",
      "type": "function"
    },
    {
      "inputs": [],
      "name": "implementation",
      "outputs": [
        {
          "internalType": "address",
          "name": "",
          "type": "address"
        }
      ],
      "stateMutability": "view",
      "type": "function"
    },
    {
      "inputs": [
        {
          "internalType": "bytes32",
          "name": "requesterAppId",
          "type": "bytes32"
        },
        {
          "internalType": "bytes32",
          "name": "appId",
          "type": "bytes32"
        },
        {
          "internalType": "uint8",
          "name": "permissionId",
          "type": "uint8"
        }
      ],
      "name": "removePermission",
      "outputs": [],
      "stateMutability": "nonpayable",
      "type": "function"
    },
    {
      "inputs": [
        {
          "internalType": "address",
          "name": "appCode",
          "type": "address"
        }
      ],
      "name": "upgrade",
      "outputs": [],
      "stateMutability": "nonpayable",
      "type": "function"
    }
  ],
  "bytecode": "0x60a06040526097805460ff60a01b19169055610019610031565b60ff1660805234801561002b57600080fd5b506100cc565b609754600090600f600160a01b90910460ff161061005157610051610088565b60978054600160a01b900460ff1690601461006b8361009e565b91906101000a81548160ff021916908360ff160217905550905090565b634e487b7160e01b600052600160045260246000fd5b600060ff821660ff8114156100c357634e487b7160e01b600052601160045260246000fd5b60010192915050565b6080516109e16100f560003960008181610100015281816102ba015261033a01526109e16000f3fe608060405234801561001057600080fd5b506004361061007d5760003560e01c80635f6422ba1161005b5780635f6422ba146100e857806378a259b3146100fb57806399c8240f14610134578063ed82f4b81461014757600080fd5b80630900f010146100825780631e651513146100975780635c60da1b146100c8575b600080fd5b6100956100903660046107dd565b61016a565b005b6100aa6100a53660046107ff565b61021f565b6040516001600160f01b031990911681526020015b60405180910390f35b6100d061029f565b6040516001600160a01b0390911681526020016100bf565b6100956100f6366004610832565b6102b8565b6101227f000000000000000000000000000000000000000000000000000000000000000081565b60405160ff90911681526020016100bf565b610095610142366004610832565b610338565b61015a610155366004610867565b6103b2565b60405190151581526020016100bf565b60975460408051808201909152600d81526c20aaaa2427a924ad20aa24a7a760991b6020820152906001600160a01b031633146101c35760405162461bcd60e51b81526004016101ba91906108a1565b60405180910390fd5b50806101cd610533565b80546001600160a01b0319166001600160a01b0392831617905560405190821681527ff78721226efe9a1bb678189a16d1554928b9f2192e2cb93eeda83b79fa40007d9060200160405180910390a150565b600082815260fd60205260408120548190819061024690600160a01b900461ffff1661056b565b600086815260fd6020908152604080832061ffff8616845260010190915290209193509150816010811061027c5761027c6108f6565b601091828204019190066002029054906101000a900460f01b9250505092915050565b60006102a9610533565b546001600160a01b0316919050565b7f00000000000000000000000000000000000000000000000000000000000000006102e28161059a565b6040518060400160405280600d81526020016c20aaaa2427a924ad20aa24a7a760991b815250906103265760405162461bcd60e51b81526004016101ba91906108a1565b5061033284848461061c565b50505050565b7f00000000000000000000000000000000000000000000000000000000000000006103628161059a565b6040518060400160405280600d81526020016c20aaaa2427a924ad20aa24a7a760991b815250906103a65760405162461bcd60e51b81526004016101ba91906108a1565b506103328484846106bc565b6000806103be8361075c565b6001600160a01b03808716600081815260fc60209081526040808320548a861684528184205481855260fd845293829020548251808401909352600983526812539590549250539560ba1b93830193909352959650919391929116146104375760405162461bcd60e51b81526004016101ba91906108a1565b50600081815260fd6020908152604091829020548251808401909352600983526812539590549250539560ba1b918301919091526001600160a01b038881169116146104965760405162461bcd60e51b81526004016101ba91906108a1565b50600082815260fd602052604081205481906104bc90600160a01b900461ffff1661056b565b600085815260fd6020908152604080832061ffff86168452600101909152902091935091506001600160f01b031986169086908360108110610500576105006108f6565b601091828204019190066002029054906101000a900460f01b166001600160f01b03191614955050505050509392505050565b600061056661056360017f797d7c7d0df25d67e029b044c5bcb2b89d68f6483382b5f85e64485950ed88d161090c565b90565b905090565b6000808061057a601085610947565b90506000610589601086610968565b919561ffff90921694509092505050565b609754604051631db05e9760e31b815233600482015230602482015260ff831660448201526000916001600160a01b03169063ed82f4b890606401602060405180830381865afa1580156105f2573d6000803e3d6000fd5b505050506040513d601f19601f820116820180604052508101906106169190610989565b92915050565b600083815260fd6020526040812054819061064190600160a01b900461ffff1661056b565b9150915061064e8361075c565b600085815260fd6020908152604080832061ffff871684526001019091529020826010811061067f5761067f6108f6565b601091828204019190066002028282829054906101000a900460f01b1892506101000a81548161ffff021916908360f01c02179055505050505050565b600083815260fd602052604081205481906106e190600160a01b900461ffff1661056b565b915091506106ee8361075c565b600085815260fd6020908152604080832061ffff871684526001019091529020826010811061071f5761071f6108f6565b601091828204019190066002028282829054906101000a900460f01b1792506101000a81548161ffff021916908360f01c02179055505050505050565b600060108260ff1610604051806040016040528060158152602001741253959053125117d41154935254d4d253d397d251605a1b815250906107b15760405162461bcd60e51b81526004016101ba91906108a1565b5050600160ff9091161b60f01b90565b80356001600160a01b03811681146107d857600080fd5b919050565b6000602082840312156107ef57600080fd5b6107f8826107c1565b9392505050565b6000806040838503121561081257600080fd5b50508035926020909101359150565b803560ff811681146107d857600080fd5b60008060006060848603121561084757600080fd5b833592506020840135915061085e60408501610821565b90509250925092565b60008060006060848603121561087c57600080fd5b610885846107c1565b9250610893602085016107c1565b915061085e60408501610821565b600060208083528351808285015260005b818110156108ce578581018301518582016040015282016108b2565b818111156108e0576000604083870101525b50601f01601f1916929092016040019392505050565b634e487b7160e01b600052603260045260246000fd5b60008282101561092c57634e487b7160e01b600052601160045260246000fd5b500390565b634e487b7160e01b600052601260045260246000fd5b600061ffff8084168061095c5761095c610931565b92169190910492915050565b600061ffff8084168061097d5761097d610931565b92169190910692915050565b60006020828403121561099b57600080fd5b815180151581146107f857600080fdfea26469706673582212207f6c5caa8e01a0cbcf1b6dd407bec3e65ae9b6a5d607da6ffd0cbb2a4475765b64736f6c634300080c0033",
  "linkReferences": {},
  "deployedLinkReferences": {}
}