{
  "_format": "hh-sol-artifact-1",
  "contractName": "AppManager",
  "sourceName": "contracts/kernel/AppManager.sol",
  "abi": [
    {
      "anonymous": false,
      "inputs": [
        {
          "indexed": false,
          "internalType": "contract IKernel",
          "name": "kernel",
          "type": "address"
        }
      ],
      "name": "Init",
      "type": "event"
    },
    {
      "anonymous": false,
      "inputs": [
        {
          "indexed": false,
          "internalType": "address",
          "name": "code",
          "type": "address"
        }
      ],
      "name": "Upgrade",
      "type": "event"
    },
    {
      "inputs": [],
      "name": "KERNEL_ADMIN",
      "outputs": [
        {
          "internalType": "uint8",
          "name": "",
          "type": "uint8"
        }
      ],
      "stateMutability": "view",
      "type": "function"
    },
    {
      "inputs": [
        {
          "internalType": "bytes32",
          "name": "requesterAppId",
          "type": "bytes32"
        },
        {
          "internalType": "bytes32",
          "name": "appId",
          "type": "bytes32"
        },
        {
          "internalType": "uint8",
          "name": "permissionId",
          "type": "uint8"
        }
      ],
      "name": "addPermission",
      "outputs": [],
      "stateMutability": "nonpayable",
      "type": "function"
    },
    {
      "inputs": [
        {
          "internalType": "bytes32",
          "name": "id",
          "type": "bytes32"
        },
        {
          "internalType": "address",
          "name": "appAddress",
          "type": "address"
        },
        {
          "internalType": "bool",
          "name": "isNative",
          "type": "bool"
        }
      ],
      "name": "connectApp",
      "outputs": [],
      "stateMutability": "nonpayable",
      "type": "function"
    },
    {
      "inputs": [
        {
          "internalType": "bytes32",
          "name": "id",
          "type": "bytes32"
        },
        {
          "internalType": "address",
          "name": "appCode",
          "type": "address"
        },
        {
          "internalType": "bytes",
          "name": "data",
          "type": "bytes"
        }
      ],
      "name": "deployApp",
      "outputs": [
        {
          "internalType": "address",
          "name": "",
          "type": "address"
        }
      ],
      "stateMutability": "nonpayable",
      "type": "function"
    },
    {
      "inputs": [
        {
          "internalType": "bytes32",
          "name": "id",
          "type": "bytes32"
        }
      ],
      "name": "getAppAddress",
      "outputs": [
        {
          "internalType": "address",
          "name": "",
          "type": "address"
        }
      ],
      "stateMutability": "view",
      "type": "function"
    },
    {
      "inputs": [
        {
          "internalType": "bytes32",
          "name": "entity",
          "type": "bytes32"
        },
        {
          "internalType": "bytes32",
          "name": "app",
          "type": "bytes32"
        }
      ],
      "name": "getPermissions",
      "outputs": [
        {
          "internalType": "bytes2",
          "name": "",
          "type": "bytes2"
        }
      ],
      "stateMutability": "view",
      "type": "function"
    },
    {
      "inputs": [
        {
          "internalType": "address",
          "name": "entityAddress",
          "type": "address"
        },
        {
          "internalType": "address",
          "name": "appAddress",
          "type": "address"
        },
        {
          "internalType": "uint8",
          "name": "permissionId",
          "type": "uint8"
        }
      ],
      "name": "hasPermission",
      "outputs": [
        {
          "internalType": "bool",
          "name": "",
          "type": "bool"
        }
      ],
      "stateMutability": "view",
      "type": "function"
    },
    {
      "inputs": [],
      "name": "implementation",
      "outputs": [
        {
          "internalType": "address",
          "name": "",
          "type": "address"
        }
      ],
      "stateMutability": "view",
      "type": "function"
    },
    {
      "inputs": [
        {
          "internalType": "bytes32",
          "name": "requesterAppId",
          "type": "bytes32"
        },
        {
          "internalType": "bytes32",
          "name": "appId",
          "type": "bytes32"
        },
        {
          "internalType": "uint8",
          "name": "permissionId",
          "type": "uint8"
        }
      ],
      "name": "removePermission",
      "outputs": [],
      "stateMutability": "nonpayable",
      "type": "function"
    },
    {
      "inputs": [
        {
          "internalType": "bytes32",
          "name": "id",
          "type": "bytes32"
        },
        {
          "internalType": "address",
          "name": "appAddress",
          "type": "address"
        },
        {
          "internalType": "bool",
          "name": "isNative",
          "type": "bool"
        }
      ],
      "name": "resetApp",
      "outputs": [],
      "stateMutability": "nonpayable",
      "type": "function"
    },
    {
      "inputs": [
        {
          "internalType": "address",
          "name": "appCode",
          "type": "address"
        }
      ],
      "name": "upgrade",
      "outputs": [],
      "stateMutability": "nonpayable",
      "type": "function"
    }
  ],
  "bytecode": "0x60a06040526097805460ff60a01b19169055610019610031565b60ff1660805234801561002b57600080fd5b506100cc565b609754600090600f600160a01b90910460ff161061005157610051610088565b60978054600160a01b900460ff1690601461006b8361009e565b91906101000a81548160ff021916908360ff160217905550905090565b634e487b7160e01b600052600160045260246000fd5b600060ff821660ff8114156100c357634e487b7160e01b600052601160045260246000fd5b60010192915050565b60805161117e61010a6000396000818161013f01528181610348015281816103ca0152818161053801528181610610015261068a015261117e6000f3fe608060405234801561001057600080fd5b50600436106100a95760003560e01c806378a259b31161007157806378a259b31461013a5780637d2a19321461017357806399c8240f14610186578063dae3f63414610199578063eaa77176146101c2578063ed82f4b8146101d557600080fd5b80630900f010146100ae5780631e651513146100c35780635c60da1b146100f45780635f6422ba146101145780636e54aa1414610127575b600080fd5b6100c16100bc366004610c61565b6101f8565b005b6100d66100d1366004610c83565b6102ad565b6040516001600160f01b031990911681526020015b60405180910390f35b6100fc61032d565b6040516001600160a01b0390911681526020016100eb565b6100c1610122366004610cb6565b610346565b6100fc610135366004610ceb565b6103c6565b6101617f000000000000000000000000000000000000000000000000000000000000000081565b60405160ff90911681526020016100eb565b6100c1610181366004610d83565b610536565b6100c1610194366004610cb6565b61060e565b6100fc6101a7366004610dc3565b600090815260fd60205260409020546001600160a01b031690565b6100c16101d0366004610d83565b610688565b6101e86101e3366004610ddc565b610702565b60405190151581526020016100eb565b60975460408051808201909152600d81526c20aaaa2427a924ad20aa24a7a760991b6020820152906001600160a01b031633146102515760405162461bcd60e51b81526004016102489190610e16565b60405180910390fd5b508061025b610883565b80546001600160a01b0319166001600160a01b0392831617905560405190821681527ff78721226efe9a1bb678189a16d1554928b9f2192e2cb93eeda83b79fa40007d9060200160405180910390a150565b600082815260fd6020526040812054819081906102d490600160a01b900461ffff166108bb565b600086815260fd6020908152604080832061ffff8616845260010190915290209193509150816010811061030a5761030a610e6b565b601091828204019190066002029054906101000a900460f01b9250505092915050565b6000610337610883565b546001600160a01b0316919050565b7f0000000000000000000000000000000000000000000000000000000000000000610370816108ea565b6040518060400160405280600d81526020016c20aaaa2427a924ad20aa24a7a760991b815250906103b45760405162461bcd60e51b81526004016102489190610e16565b506103c084848461096c565b50505050565b60007f00000000000000000000000000000000000000000000000000000000000000006103f2816108ea565b6040518060400160405280600d81526020016c20aaaa2427a924ad20aa24a7a760991b815250906104365760405162461bcd60e51b81526004016102489190610e16565b5060008560405161044690610c38565b6001600160a01b039091168152602001604051809103906000f080158015610472573d6000803e3d6000fd5b50905061048187826001610a0c565b6000816001600160a01b0316868660405161049d929190610e81565b6000604051808303816000865af19150503d80600081146104da576040519150601f19603f3d011682016040523d82523d6000602084013e6104df565b606091505b50509050806040518060400160405280600e81526020016d24a724aa24a0a624ad20aa24a7a760911b815250906105295760405162461bcd60e51b81526004016102489190610e16565b5090979650505050505050565b7f0000000000000000000000000000000000000000000000000000000000000000610560816108ea565b6040518060400160405280600d81526020016c20aaaa2427a924ad20aa24a7a760991b815250906105a45760405162461bcd60e51b81526004016102489190610e16565b50600084815260fd6020908152604080832080546001600160a01b03908116855260fc9093528184208490558054600160b01b938816600162ff000160a01b031990911681179390931760ff60b81b1916600160b81b8715150217905590825290208490556103c0565b7f0000000000000000000000000000000000000000000000000000000000000000610638816108ea565b6040518060400160405280600d81526020016c20aaaa2427a924ad20aa24a7a760991b8152509061067c5760405162461bcd60e51b81526004016102489190610e16565b506103c0848484610b33565b7f00000000000000000000000000000000000000000000000000000000000000006106b2816108ea565b6040518060400160405280600d81526020016c20aaaa2427a924ad20aa24a7a760991b815250906106f65760405162461bcd60e51b81526004016102489190610e16565b506103c0848484610a0c565b60008061070e83610bd3565b6001600160a01b03808716600081815260fc60209081526040808320548a861684528184205481855260fd845293829020548251808401909352600983526812539590549250539560ba1b93830193909352959650919391929116146107875760405162461bcd60e51b81526004016102489190610e16565b50600081815260fd6020908152604091829020548251808401909352600983526812539590549250539560ba1b918301919091526001600160a01b038881169116146107e65760405162461bcd60e51b81526004016102489190610e16565b50600082815260fd6020526040812054819061080c90600160a01b900461ffff166108bb565b600085815260fd6020908152604080832061ffff86168452600101909152902091935091506001600160f01b03198616908690836010811061085057610850610e6b565b601091828204019190066002029054906101000a900460f01b166001600160f01b03191614955050505050509392505050565b60006108b66108b360017f797d7c7d0df25d67e029b044c5bcb2b89d68f6483382b5f85e64485950ed88d1610ea7565b90565b905090565b600080806108ca601085610ed4565b905060006108d9601086610ef5565b919561ffff90921694509092505050565b609754604051631db05e9760e31b815233600482015230602482015260ff831660448201526000916001600160a01b03169063ed82f4b890606401602060405180830381865afa158015610942573d6000803e3d6000fd5b505050506040513d601f19601f820116820180604052508101906109669190610f16565b92915050565b600083815260fd6020526040812054819061099190600160a01b900461ffff166108bb565b9150915061099e83610bd3565b600085815260fd6020908152604080832061ffff87168452600101909152902082601081106109cf576109cf610e6b565b601091828204019190066002028282829054906101000a900460f01b1892506101000a81548161ffff021916908360f01c02179055505050505050565b600083815260fd60205260409020546001600160a01b0316158015610a4757506001600160a01b038216600090815260fc6020526040902054155b6040518060400160405280600e81526020016d10541417d5d054d7d2539255115160921b81525090610a8c5760405162461bcd60e51b81526004016102489190610e16565b50600083815260fd6020908152604080832080546001600160a01b031981166001600160a01b038816908117835560fb8054600160b01b6001600160b01b0319909416831761ffff918216600160a01b021761ffff60b01b1916600160b81b8a1515021793909317909355855260fc909352908320869055805490911691610b1383610f33565b91906101000a81548161ffff021916908361ffff16021790555050505050565b600083815260fd60205260408120548190610b5890600160a01b900461ffff166108bb565b91509150610b6583610bd3565b600085815260fd6020908152604080832061ffff8716845260010190915290208260108110610b9657610b96610e6b565b601091828204019190066002028282829054906101000a900460f01b1792506101000a81548161ffff021916908360f01c02179055505050505050565b600060108260ff1610604051806040016040528060158152602001741253959053125117d41154935254d4d253d397d251605a1b81525090610c285760405162461bcd60e51b81526004016102489190610e16565b5050600160ff9091161b60f01b90565b6101f380610f5683390190565b80356001600160a01b0381168114610c5c57600080fd5b919050565b600060208284031215610c7357600080fd5b610c7c82610c45565b9392505050565b60008060408385031215610c9657600080fd5b50508035926020909101359150565b803560ff81168114610c5c57600080fd5b600080600060608486031215610ccb57600080fd5b8335925060208401359150610ce260408501610ca5565b90509250925092565b60008060008060608587031215610d0157600080fd5b84359350610d1160208601610c45565b9250604085013567ffffffffffffffff80821115610d2e57600080fd5b818701915087601f830112610d4257600080fd5b813581811115610d5157600080fd5b886020828501011115610d6357600080fd5b95989497505060200194505050565b8015158114610d8057600080fd5b50565b600080600060608486031215610d9857600080fd5b83359250610da860208501610c45565b91506040840135610db881610d72565b809150509250925092565b600060208284031215610dd557600080fd5b5035919050565b600080600060608486031215610df157600080fd5b610dfa84610c45565b9250610e0860208501610c45565b9150610ce260408501610ca5565b600060208083528351808285015260005b81811015610e4357858101830151858201604001528201610e27565b81811115610e55576000604083870101525b50601f01601f1916929092016040019392505050565b634e487b7160e01b600052603260045260246000fd5b8183823760009101908152919050565b634e487b7160e01b600052601160045260246000fd5b600082821015610eb957610eb9610e91565b500390565b634e487b7160e01b600052601260045260246000fd5b600061ffff80841680610ee957610ee9610ebe565b92169190910492915050565b600061ffff80841680610f0a57610f0a610ebe565b92169190910692915050565b600060208284031215610f2857600080fd5b8151610c7c81610d72565b600061ffff80831681811415610f4b57610f4b610e91565b600101939250505056fe608060405234801561001057600080fd5b506040516101f33803806101f383398101604081905261002f916100a6565b8061003861005c565b80546001600160a01b0319166001600160a01b0392909216919091179055506100fb565b600061009e61008c60017f797d7c7d0df25d67e029b044c5bcb2b89d68f6483382b5f85e64485950ed88d16100d6565b60001b6100a360201b6100211760201c565b905090565b90565b6000602082840312156100b857600080fd5b81516001600160a01b03811681146100cf57600080fd5b9392505050565b6000828210156100f657634e487b7160e01b600052601160045260246000fd5b500390565b60ea806101096000396000f3fe608060405236601057600e6013565b005b600e5b601f601b6024565b603b565b565b90565b6000602c605e565b546001600160a01b0316919050565b3660008037600080366000845af43d6000803e8080156059573d6000f35b3d6000fd5b6000608b602160017f797d7c7d0df25d67e029b044c5bcb2b89d68f6483382b5f85e64485950ed88d16090565b905090565b60008282101560af57634e487b7160e01b600052601160045260246000fd5b50039056fea2646970667358221220259264f29009bd0a6fc7e41f706eb552cd0ba80d6788e0f900544d855cc3072364736f6c634300080c0033a26469706673582212202e7f8ee759f416b0f2737f560815f560e64f06a2903e3efc2498461f8b0b455464736f6c634300080c0033",
  "linkReferences": {},
  "deployedLinkReferences": {}
}