{
  "_format": "hh-sol-artifact-1",
  "contractName": "BaseStorage",
  "sourceName": "contracts/kernel/BaseStorage.sol",
  "abi": [
    {
      "anonymous": false,
      "inputs": [
        {
          "indexed": false,
          "internalType": "contract IKernel",
          "name": "kernel",
          "type": "address"
        }
      ],
      "name": "Init",
      "type": "event"
    },
    {
      "anonymous": false,
      "inputs": [
        {
          "indexed": false,
          "internalType": "address",
          "name": "code",
          "type": "address"
        }
      ],
      "name": "Upgrade",
      "type": "event"
    },
    {
      "inputs": [],
      "name": "implementation",
      "outputs": [
        {
          "internalType": "address",
          "name": "",
          "type": "address"
        }
      ],
      "stateMutability": "view",
      "type": "function"
    },
    {
      "inputs": [
        {
          "internalType": "address",
          "name": "appCode",
          "type": "address"
        }
      ],
      "name": "upgrade",
      "outputs": [],
      "stateMutability": "nonpayable",
      "type": "function"
    }
  ],
  "bytecode": "0x60806040526097805460ff60a01b1916905534801561001d57600080fd5b5061025a8061002d6000396000f3fe608060405234801561001057600080fd5b50600436106100365760003560e01c80630900f0101461003b5780635c60da1b14610050575b600080fd5b61004e61004936600461017a565b610074565b005b610058610129565b6040516001600160a01b03909116815260200160405180910390f35b60975460408051808201909152600d81526c20aaaa2427a924ad20aa24a7a760991b6020820152906001600160a01b031633146100cd5760405162461bcd60e51b81526004016100c491906101aa565b60405180910390fd5b50806100d7610142565b80546001600160a01b0319166001600160a01b0392831617905560405190821681527ff78721226efe9a1bb678189a16d1554928b9f2192e2cb93eeda83b79fa40007d9060200160405180910390a150565b6000610133610142565b546001600160a01b0316919050565b600061017561017260017f797d7c7d0df25d67e029b044c5bcb2b89d68f6483382b5f85e64485950ed88d16101ff565b90565b905090565b60006020828403121561018c57600080fd5b81356001600160a01b03811681146101a357600080fd5b9392505050565b600060208083528351808285015260005b818110156101d7578581018301518582016040015282016101bb565b818111156101e9576000604083870101525b50601f01601f1916929092016040019392505050565b60008282101561021f57634e487b7160e01b600052601160045260246000fd5b50039056fea2646970667358221220a94d57442582e199339ee72c479e57acda2b6029634f4acf5552b4d746efacbb64736f6c634300080c0033",
  "linkReferences": {},
  "deployedLinkReferences": {}
}