{
  "_format": "hh-sol-artifact-1",
  "contractName": "Kernel",
  "sourceName": "contracts/kernel/Kernel.sol",
  "abi": [
    {
      "anonymous": false,
      "inputs": [
        {
          "indexed": false,
          "internalType": "contract IKernel",
          "name": "kernel",
          "type": "address"
        }
      ],
      "name": "Init",
      "type": "event"
    },
    {
      "anonymous": false,
      "inputs": [
        {
          "indexed": false,
          "internalType": "address",
          "name": "code",
          "type": "address"
        }
      ],
      "name": "Upgrade",
      "type": "event"
    },
    {
      "inputs": [],
      "name": "KERNEL_ADMIN",
      "outputs": [
        {
          "internalType": "uint8",
          "name": "",
          "type": "uint8"
        }
      ],
      "stateMutability": "view",
      "type": "function"
    },
    {
      "inputs": [
        {
          "internalType": "bytes32",
          "name": "requesterAppId",
          "type": "bytes32"
        },
        {
          "internalType": "bytes32",
          "name": "appId",
          "type": "bytes32"
        },
        {
          "internalType": "uint8",
          "name": "permissionId",
          "type": "uint8"
        }
      ],
      "name": "addPermission",
      "outputs": [],
      "stateMutability": "nonpayable",
      "type": "function"
    },
    {
      "inputs": [
        {
          "internalType": "bytes32",
          "name": "id",
          "type": "bytes32"
        },
        {
          "internalType": "address",
          "name": "appAddress",
          "type": "address"
        },
        {
          "internalType": "bool",
          "name": "isNative",
          "type": "bool"
        }
      ],
      "name": "connectApp",
      "outputs": [],
      "stateMutability": "nonpayable",
      "type": "function"
    },
    {
      "inputs": [
        {
          "internalType": "bytes32",
          "name": "id",
          "type": "bytes32"
        },
        {
          "internalType": "address",
          "name": "appCode",
          "type": "address"
        },
        {
          "internalType": "bytes",
          "name": "data",
          "type": "bytes"
        }
      ],
      "name": "deployApp",
      "outputs": [
        {
          "internalType": "address",
          "name": "",
          "type": "address"
        }
      ],
      "stateMutability": "nonpayable",
      "type": "function"
    },
    {
      "inputs": [
        {
          "internalType": "bytes32",
          "name": "id",
          "type": "bytes32"
        }
      ],
      "name": "getAppAddress",
      "outputs": [
        {
          "internalType": "address",
          "name": "",
          "type": "address"
        }
      ],
      "stateMutability": "view",
      "type": "function"
    },
    {
      "inputs": [
        {
          "internalType": "bytes32",
          "name": "entity",
          "type": "bytes32"
        },
        {
          "internalType": "bytes32",
          "name": "app",
          "type": "bytes32"
        }
      ],
      "name": "getPermissions",
      "outputs": [
        {
          "internalType": "bytes2",
          "name": "",
          "type": "bytes2"
        }
      ],
      "stateMutability": "view",
      "type": "function"
    },
    {
      "inputs": [],
      "name": "getUpdateManager",
      "outputs": [
        {
          "internalType": "address",
          "name": "",
          "type": "address"
        }
      ],
      "stateMutability": "view",
      "type": "function"
    },
    {
      "inputs": [
        {
          "internalType": "address",
          "name": "entityAddress",
          "type": "address"
        },
        {
          "internalType": "address",
          "name": "appAddress",
          "type": "address"
        },
        {
          "internalType": "uint8",
          "name": "permissionId",
          "type": "uint8"
        }
      ],
      "name": "hasPermission",
      "outputs": [
        {
          "internalType": "bool",
          "name": "",
          "type": "bool"
        }
      ],
      "stateMutability": "view",
      "type": "function"
    },
    {
      "inputs": [],
      "name": "implementation",
      "outputs": [
        {
          "internalType": "address",
          "name": "",
          "type": "address"
        }
      ],
      "stateMutability": "view",
      "type": "function"
    },
    {
      "inputs": [
        {
          "internalType": "contract IUpdateManager",
          "name": "updateManager",
          "type": "address"
        },
        {
          "internalType": "address",
          "name": "sudo",
          "type": "address"
        }
      ],
      "name": "initialize",
      "outputs": [],
      "stateMutability": "nonpayable",
      "type": "function"
    },
    {
      "inputs": [
        {
          "internalType": "bytes32",
          "name": "requesterAppId",
          "type": "bytes32"
        },
        {
          "internalType": "bytes32",
          "name": "appId",
          "type": "bytes32"
        },
        {
          "internalType": "uint8",
          "name": "permissionId",
          "type": "uint8"
        }
      ],
      "name": "removePermission",
      "outputs": [],
      "stateMutability": "nonpayable",
      "type": "function"
    },
    {
      "inputs": [
        {
          "internalType": "bytes32",
          "name": "id",
          "type": "bytes32"
        },
        {
          "internalType": "address",
          "name": "appAddress",
          "type": "address"
        },
        {
          "internalType": "bool",
          "name": "isNative",
          "type": "bool"
        }
      ],
      "name": "resetApp",
      "outputs": [],
      "stateMutability": "nonpayable",
      "type": "function"
    },
    {
      "inputs": [
        {
          "internalType": "address",
          "name": "appCode",
          "type": "address"
        }
      ],
      "name": "upgrade",
      "outputs": [],
      "stateMutability": "nonpayable",
      "type": "function"
    },
    {
      "inputs": [
        {
          "internalType": "bytes32",
          "name": "id",
          "type": "bytes32"
        }
      ],
      "name": "upgradeApp",
      "outputs": [],
      "stateMutability": "nonpayable",
      "type": "function"
    }
  ],
  "bytecode": "0x60a06040526097805460ff60a01b19169055610019610031565b60ff1660805234801561002b57600080fd5b506100cc565b609754600090600f600160a01b90910460ff161061005157610051610088565b60978054600160a01b900460ff1690601461006b8361009e565b91906101000a81548160ff021916908360ff160217905550905090565b634e487b7160e01b600052600160045260246000fd5b600060ff821660ff8114156100c357634e487b7160e01b600052601160045260246000fd5b60010192915050565b6080516118ab62000119600039600081816101cc01528181610577015281816105ed01528181610676015281816107f5015281816108d3015281816109540152610bf001526118ab6000f3fe60806040523480156200001157600080fd5b5060043610620000fd5760003560e01c806378a259b31162000097578063b8d84c97116200006e578063b8d84c97146200022f578063dae3f6341462000246578063eaa771761462000272578063ed82f4b8146200028957600080fd5b806378a259b314620001c65780637d2a1932146200020157806399c8240f146200021857600080fd5b8063485cc95511620000d8578063485cc95514620001775780635c60da1b146200018e5780635f6422ba14620001985780636e54aa1414620001af57600080fd5b80630900f0101462000102578063093b9d1c146200011b5780631e6515131462000146575b600080fd5b6200011962000113366004620012aa565b620002b1565b005b610227546001600160a01b03165b6040516001600160a01b0390911681526020015b60405180910390f35b6200015d62000157366004620012d1565b6200036c565b6040516001600160f01b031990911681526020016200013d565b6200011962000188366004620012f4565b620003f1565b62000129620005d0565b62000119620001a936600462001349565b620005eb565b62000129620001c036600462001381565b62000672565b620001ee7f000000000000000000000000000000000000000000000000000000000000000081565b60405160ff90911681526020016200013d565b620001196200021236600462001420565b620007f3565b620001196200022936600462001349565b620008d1565b620001196200024036600462001467565b62000952565b620001296200025736600462001467565b600090815260fd60205260409020546001600160a01b031690565b620001196200028336600462001420565b62000bee565b620002a06200029a36600462001481565b62000c6f565b60405190151581526020016200013d565b60975460408051808201909152600d81526c20aaaa2427a924ad20aa24a7a760991b6020820152906001600160a01b031633146200030d5760405162461bcd60e51b8152600401620003049190620014c6565b60405180910390fd5b50806200031962000dfd565b80546001600160a01b0319166001600160a01b0392831617905560405190821681527ff78721226efe9a1bb678189a16d1554928b9f2192e2cb93eeda83b79fa40007d906020015b60405180910390a150565b600082815260fd6020526040812054819081906200039590600160a01b900461ffff1662000e38565b600086815260fd6020908152604080832061ffff86168452600101909152902091935091508160108110620003ce57620003ce6200151e565b601091828204019190066002029054906101000a900460f01b9250505092915050565b606454610100900460ff166200040e5760645460ff161562000412565b303b155b620004775760405162461bcd60e51b815260206004820152602e60248201527f496e697469616c697a61626c653a20636f6e747261637420697320616c72656160448201526d191e481a5b9a5d1a585b1a5e995960921b606482015260840162000304565b606454610100900460ff161580156200049a576064805461ffff19166101011790555b620004a462000e6b565b6040516512d15493915360d21b6020820152620004dd906026016040516020818303038152906040528051906020012030600162000ea2565b604051635355444f60e01b602082015262000514906024016040516020818303038152906040528051906020012083600062000ea2565b604051635355444f60e01b60208201526200059c90602401604051602081830303815290604052805190602001206040516020016200055f906512d15493915360d21b815260060190565b604051602081830303815290604052805190602001207f000000000000000000000000000000000000000000000000000000000000000062000fcf565b61022780546001600160a01b0319166001600160a01b0385161790558015620005cb576064805461ff00191690555b505050565b6000620005dc62000dfd565b546001600160a01b0316919050565b7f0000000000000000000000000000000000000000000000000000000000000000620006178162001076565b6040518060400160405280600d81526020016c20aaaa2427a924ad20aa24a7a760991b815250906200065e5760405162461bcd60e51b8152600401620003049190620014c6565b506200066c848484620010fb565b50505050565b60007f0000000000000000000000000000000000000000000000000000000000000000620006a08162001076565b6040518060400160405280600d81526020016c20aaaa2427a924ad20aa24a7a760991b81525090620006e75760405162461bcd60e51b8152600401620003049190620014c6565b50600085604051620006f99062001283565b6001600160a01b039091168152602001604051809103906000f08015801562000726573d6000803e3d6000fd5b509050620007378782600162000ea2565b6000816001600160a01b031686866040516200075592919062001534565b6000604051808303816000865af19150503d806000811462000794576040519150601f19603f3d011682016040523d82523d6000602084013e62000799565b606091505b50509050806040518060400160405280600e81526020016d24a724aa24a0a624ad20aa24a7a760911b81525090620007e65760405162461bcd60e51b8152600401620003049190620014c6565b5090979650505050505050565b7f00000000000000000000000000000000000000000000000000000000000000006200081f8162001076565b6040518060400160405280600d81526020016c20aaaa2427a924ad20aa24a7a760991b81525090620008665760405162461bcd60e51b8152600401620003049190620014c6565b50600084815260fd6020908152604080832080546001600160a01b03908116855260fc9093528184208490558054600160b01b938816600162ff000160a01b031990911681179390931760ff60b81b1916600160b81b8715150217905590825290208490556200066c565b7f0000000000000000000000000000000000000000000000000000000000000000620008fd8162001076565b6040518060400160405280600d81526020016c20aaaa2427a924ad20aa24a7a760991b81525090620009445760405162461bcd60e51b8152600401620003049190620014c6565b506200066c84848462000fcf565b7f00000000000000000000000000000000000000000000000000000000000000006200097e8162001076565b6040518060400160405280600d81526020016c20aaaa2427a924ad20aa24a7a760991b81525090620009c55760405162461bcd60e51b8152600401620003049190620014c6565b50600082815260fd6020526040902054600160b81b900460ff16801562000a025750600082815260fd60205260409020546001600160a01b031615155b6040518060400160405280600981526020016812539590549250539560ba1b8152509062000a455760405162461bcd60e51b8152600401620003049190620014c6565b50600082815260fd602052604080822054610227549151635d08f37360e11b8152600481018690526001600160a01b039182169392919091169063ba11e6e690602401602060405180830381865afa15801562000aa6573d6000803e3d6000fd5b505050506040513d601f19601f8201168201806040525081019062000acc919062001544565b9050806001600160a01b0316826001600160a01b0316635c60da1b6040518163ffffffff1660e01b8152600401602060405180830381865afa15801562000b17573d6000803e3d6000fd5b505050506040513d601f19601f8201168201806040525081019062000b3d919062001544565b6001600160a01b031614156040518060400160405280600981526020016812539590549250539560ba1b8152509062000b8b5760405162461bcd60e51b8152600401620003049190620014c6565b5060405162900f0160e41b81526001600160a01b038281166004830152831690630900f01090602401600060405180830381600087803b15801562000bcf57600080fd5b505af115801562000be4573d6000803e3d6000fd5b5050505050505050565b7f000000000000000000000000000000000000000000000000000000000000000062000c1a8162001076565b6040518060400160405280600d81526020016c20aaaa2427a924ad20aa24a7a760991b8152509062000c615760405162461bcd60e51b8152600401620003049190620014c6565b506200066c84848462000ea2565b60008062000c7d83620011a2565b6001600160a01b03808716600081815260fc60209081526040808320548a861684528184205481855260fd845293829020548251808401909352600983526812539590549250539560ba1b938301939093529596509193919291161462000cf95760405162461bcd60e51b8152600401620003049190620014c6565b50600081815260fd6020908152604091829020548251808401909352600983526812539590549250539560ba1b918301919091526001600160a01b0388811691161462000d5b5760405162461bcd60e51b8152600401620003049190620014c6565b50600082815260fd6020526040812054819062000d8390600160a01b900461ffff1662000e38565b600085815260fd6020908152604080832061ffff86168452600101909152902091935091506001600160f01b03198616908690836010811062000dca5762000dca6200151e565b601091828204019190066002029054906101000a900460f01b166001600160f01b03191614955050505050509392505050565b600062000e3362000e3060017f797d7c7d0df25d67e029b044c5bcb2b89d68f6483382b5f85e64485950ed88d16200157a565b90565b905090565b6000808062000e49601085620015aa565b9050600062000e5a601086620015ce565b919561ffff90921694509092505050565b606454610100900460ff1662000e955760405162461bcd60e51b81526004016200030490620015f2565b62000ea0306200120a565b565b600083815260fd60205260409020546001600160a01b031615801562000ede57506001600160a01b038216600090815260fc6020526040902054155b6040518060400160405280600e81526020016d10541417d5d054d7d2539255115160921b8152509062000f265760405162461bcd60e51b8152600401620003049190620014c6565b50600083815260fd6020908152604080832080546001600160a01b031981166001600160a01b038816908117835560fb8054600160b01b6001600160b01b0319909416831761ffff918216600160a01b021761ffff60b01b1916600160b81b8a1515021793909317909355855260fc90935290832086905580549091169162000faf836200163d565b91906101000a81548161ffff021916908361ffff16021790555050505050565b600083815260fd6020526040812054819062000ff690600160a01b900461ffff1662000e38565b915091506200100583620011a2565b600085815260fd6020908152604080832061ffff87168452600101909152902082601081106200103957620010396200151e565b601091828204019190066002028282829054906101000a900460f01b1792506101000a81548161ffff021916908360f01c02179055505050505050565b609754604051631db05e9760e31b815233600482015230602482015260ff831660448201526000916001600160a01b03169063ed82f4b890606401602060405180830381865afa158015620010cf573d6000803e3d6000fd5b505050506040513d601f19601f82011682018060405250810190620010f5919062001662565b92915050565b600083815260fd602052604081205481906200112290600160a01b900461ffff1662000e38565b915091506200113183620011a2565b600085815260fd6020908152604080832061ffff87168452600101909152902082601081106200116557620011656200151e565b601091828204019190066002028282829054906101000a900460f01b1892506101000a81548161ffff021916908360f01c02179055505050505050565b600060108260ff1610604051806040016040528060158152602001741253959053125117d41154935254d4d253d397d251605a1b81525090620011fa5760405162461bcd60e51b8152600401620003049190620014c6565b5050600160ff9091161b60f01b90565b606454610100900460ff16620012345760405162461bcd60e51b81526004016200030490620015f2565b609780546001600160a01b0319166001600160a01b0383169081179091556040519081527f4f8cfde3439a1a302c21ca51eec26086efbfd940b8c0279889fc6bb6e73ecc669060200162000361565b6101f3806200168383390190565b6001600160a01b0381168114620012a757600080fd5b50565b600060208284031215620012bd57600080fd5b8135620012ca8162001291565b9392505050565b60008060408385031215620012e557600080fd5b50508035926020909101359150565b600080604083850312156200130857600080fd5b8235620013158162001291565b91506020830135620013278162001291565b809150509250929050565b803560ff811681146200134457600080fd5b919050565b6000806000606084860312156200135f57600080fd5b8335925060208401359150620013786040850162001332565b90509250925092565b600080600080606085870312156200139857600080fd5b843593506020850135620013ac8162001291565b9250604085013567ffffffffffffffff80821115620013ca57600080fd5b818701915087601f830112620013df57600080fd5b813581811115620013ef57600080fd5b8860208285010111156200140257600080fd5b95989497505060200194505050565b8015158114620012a757600080fd5b6000806000606084860312156200143657600080fd5b8335925060208401356200144a8162001291565b915060408401356200145c8162001411565b809150509250925092565b6000602082840312156200147a57600080fd5b5035919050565b6000806000606084860312156200149757600080fd5b8335620014a48162001291565b92506020840135620014b68162001291565b9150620013786040850162001332565b600060208083528351808285015260005b81811015620014f557858101830151858201604001528201620014d7565b8181111562001508576000604083870101525b50601f01601f1916929092016040019392505050565b634e487b7160e01b600052603260045260246000fd5b8183823760009101908152919050565b6000602082840312156200155757600080fd5b8151620012ca8162001291565b634e487b7160e01b600052601160045260246000fd5b6000828210156200158f576200158f62001564565b500390565b634e487b7160e01b600052601260045260246000fd5b600061ffff80841680620015c257620015c262001594565b92169190910492915050565b600061ffff80841680620015e657620015e662001594565b92169190910692915050565b6020808252602b908201527f496e697469616c697a61626c653a20636f6e7472616374206973206e6f74206960408201526a6e697469616c697a696e6760a81b606082015260800190565b600061ffff8083168181141562001658576200165862001564565b6001019392505050565b6000602082840312156200167557600080fd5b8151620012ca816200141156fe608060405234801561001057600080fd5b506040516101f33803806101f383398101604081905261002f916100a6565b8061003861005c565b80546001600160a01b0319166001600160a01b0392909216919091179055506100fb565b600061009e61008c60017f797d7c7d0df25d67e029b044c5bcb2b89d68f6483382b5f85e64485950ed88d16100d6565b60001b6100a360201b6100211760201c565b905090565b90565b6000602082840312156100b857600080fd5b81516001600160a01b03811681146100cf57600080fd5b9392505050565b6000828210156100f657634e487b7160e01b600052601160045260246000fd5b500390565b60ea806101096000396000f3fe608060405236601057600e6013565b005b600e5b601f601b6024565b603b565b565b90565b6000602c605e565b546001600160a01b0316919050565b3660008037600080366000845af43d6000803e8080156059573d6000f35b3d6000fd5b6000608b602160017f797d7c7d0df25d67e029b044c5bcb2b89d68f6483382b5f85e64485950ed88d16090565b905090565b60008282101560af57634e487b7160e01b600052601160045260246000fd5b50039056fea2646970667358221220259264f29009bd0a6fc7e41f706eb552cd0ba80d6788e0f900544d855cc3072364736f6c634300080c0033a2646970667358221220cebe6fde5f6a4ce902e336394eb19085d546364145c70c5e4461f1bdab53073e64736f6c634300080c0033",
  "linkReferences": {},
  "deployedLinkReferences": {}
}