{
  "_format": "hh-sol-artifact-1",
  "contractName": "ERC721OpenSale",
  "sourceName": "contracts/apps/ERC721Sale/ERC721OpenSale.sol",
  "abi": [
    {
      "anonymous": false,
      "inputs": [
        {
          "indexed": false,
          "internalType": "contract IKernel",
          "name": "kernel",
          "type": "address"
        }
      ],
      "name": "Init",
      "type": "event"
    },
    {
      "anonymous": false,
      "inputs": [
        {
          "indexed": false,
          "internalType": "address",
          "name": "code",
          "type": "address"
        }
      ],
      "name": "Upgrade",
      "type": "event"
    },
    {
      "inputs": [],
      "name": "CONTROLLER",
      "outputs": [
        {
          "internalType": "uint8",
          "name": "",
          "type": "uint8"
        }
      ],
      "stateMutability": "view",
      "type": "function"
    },
    {
      "inputs": [
        {
          "internalType": "address",
          "name": "to",
          "type": "address"
        },
        {
          "internalType": "bytes32",
          "name": "tierValue",
          "type": "bytes32"
        }
      ],
      "name": "buy",
      "outputs": [],
      "stateMutability": "payable",
      "type": "function"
    },
    {
      "inputs": [],
      "name": "implementation",
      "outputs": [
        {
          "internalType": "address",
          "name": "",
          "type": "address"
        }
      ],
      "stateMutability": "view",
      "type": "function"
    },
    {
      "inputs": [
        {
          "internalType": "contract IKernel",
          "name": "kernel",
          "type": "address"
        }
      ],
      "name": "initialize",
      "outputs": [],
      "stateMutability": "nonpayable",
      "type": "function"
    },
    {
      "inputs": [],
      "name": "isActive",
      "outputs": [
        {
          "internalType": "bool",
          "name": "",
          "type": "bool"
        }
      ],
      "stateMutability": "view",
      "type": "function"
    },
    {
      "inputs": [
        {
          "internalType": "bool",
          "name": "isActive_",
          "type": "bool"
        }
      ],
      "name": "setActive",
      "outputs": [],
      "stateMutability": "nonpayable",
      "type": "function"
    },
    {
      "inputs": [
        {
          "internalType": "bytes32[]",
          "name": "tierValues",
          "type": "bytes32[]"
        },
        {
          "internalType": "uint256[]",
          "name": "tierPrices_",
          "type": "uint256[]"
        }
      ],
      "name": "setPaymentPolicy",
      "outputs": [],
      "stateMutability": "nonpayable",
      "type": "function"
    },
    {
      "inputs": [
        {
          "internalType": "bytes32",
          "name": "",
          "type": "bytes32"
        }
      ],
      "name": "tierPrices",
      "outputs": [
        {
          "internalType": "uint256",
          "name": "",
          "type": "uint256"
        }
      ],
      "stateMutability": "view",
      "type": "function"
    },
    {
      "inputs": [
        {
          "internalType": "address",
          "name": "appCode",
          "type": "address"
        }
      ],
      "name": "upgrade",
      "outputs": [],
      "stateMutability": "nonpayable",
      "type": "function"
    }
  ],
  "bytecode": "0x60a06040526064805460ff60b01b19169055610019610031565b60ff1660805234801561002b57600080fd5b506100cc565b606454600090600f600160b01b90910460ff161061005157610051610088565b60648054600160b01b900460ff1690601661006b8361009e565b91906101000a81548160ff021916908360ff160217905550905090565b634e487b7160e01b600052600160045260246000fd5b600060ff821660ff8114156100c357634e487b7160e01b600052601160045260246000fd5b60010192915050565b608051610bc56100f5600039600081816101c90152818161049001526105130152610bc56000f3fe6080604052600436106100865760003560e01c80639058e228116100595780639058e22814610144578063acec338a14610157578063c0c6d00e14610177578063c4d66de814610197578063ee0fc121146101b757600080fd5b80630900f0101461008b57806322f3e2d4146100ad5780635c60da1b146100dc5780636e13e43014610109575b600080fd5b34801561009757600080fd5b506100ab6100a6366004610956565b6101fd565b005b3480156100b957600080fd5b5060c9546100c79060ff1681565b60405190151581526020015b60405180910390f35b3480156100e857600080fd5b506100f16102b9565b6040516001600160a01b0390911681526020016100d3565b34801561011557600080fd5b5061013661012436600461097a565b60c86020526000908152604090205481565b6040519081526020016100d3565b6100ab610152366004610993565b6102d2565b34801561016357600080fd5b506100ab6101723660046109cd565b61048e565b34801561018357600080fd5b506100ab610192366004610a36565b610511565b3480156101a357600080fd5b506100ab6101b2366004610956565b61062d565b3480156101c357600080fd5b506101eb7f000000000000000000000000000000000000000000000000000000000000000081565b60405160ff90911681526020016100d3565b60645460408051808201909152600d81526c20aaaa2427a924ad20aa24a7a760991b6020820152906201000090046001600160a01b0316331461025c5760405162461bcd60e51b81526004016102539190610aa2565b60405180910390fd5b50806102666106f0565b80546001600160a01b0319166001600160a01b0392831617905560405190821681527ff78721226efe9a1bb678189a16d1554928b9f2192e2cb93eeda83b79fa40007d906020015b60405180910390a150565b60006102c36106f0565b546001600160a01b0316919050565b60c95460408051808201909152600b81526a554e415641494c41424c4560a81b60208201529060ff166103185760405162461bcd60e51b81526004016102539190610aa2565b50600081815260c8602052604090205480158015906103375750803410155b6040518060400160405280600a8152602001692b20a624a220aa24a7a760b11b815250906103785760405162461bcd60e51b81526004016102539190610aa2565b50610381610728565b6064546040516545524337323160d01b6020820152620100009091046001600160a01b03169063dae3f63490602601604051602081830303815290604052805190602001206040518263ffffffff1660e01b81526004016103e491815260200190565b602060405180830381865afa158015610401573d6000803e3d6000fd5b505050506040513d601f19601f820116820180604052508101906104259190610af7565b604051632cfd300560e01b81526001600160a01b038581166004830152602482018590529190911690632cfd300590604401600060405180830381600087803b15801561047157600080fd5b505af1158015610485573d6000803e3d6000fd5b50505050505050565b7f00000000000000000000000000000000000000000000000000000000000000006104b8816107f3565b6040518060400160405280600d81526020016c20aaaa2427a924ad20aa24a7a760991b815250906104fc5760405162461bcd60e51b81526004016102539190610aa2565b505060c9805460ff1916911515919091179055565b7f000000000000000000000000000000000000000000000000000000000000000061053b816107f3565b6040518060400160405280600d81526020016c20aaaa2427a924ad20aa24a7a760991b8152509061057f5760405162461bcd60e51b81526004016102539190610aa2565b5060408051808201909152600a8152692b20a624a220aa24a7a760b11b60208201528483146105c15760405162461bcd60e51b81526004016102539190610aa2565b5060005b808514610625578383828181106105de576105de610b14565b9050602002013560c860008888858181106105fb576105fb610b14565b905060200201358152602001908152602001600020819055508061061e90610b40565b90506105c5565b505050505050565b606454610100900460ff166106485760645460ff161561064c565b303b155b6106af5760405162461bcd60e51b815260206004820152602e60248201527f496e697469616c697a61626c653a20636f6e747261637420697320616c72656160448201526d191e481a5b9a5d1a585b1a5e995960921b6064820152608401610253565b606454610100900460ff161580156106d1576064805461ffff19166101011790555b6106da8261087b565b80156106ec576064805461ff00191690555b5050565b600061072361072060017f797d7c7d0df25d67e029b044c5bcb2b89d68f6483382b5f85e64485950ed88d1610b5b565b90565b905090565b6064546040516336b8fd8d60e21b81527f06aa03964db1f7257357ef09714a5f0ca3633723df419e97015e0c7a3e83edb760048201526000916201000090046001600160a01b03169063dae3f63490602401602060405180830381865afa158015610797573d6000803e3d6000fd5b505050506040513d601f19601f820116820180604052508101906107bb9190610af7565b6040519091506001600160a01b038216903480156108fc02916000818181858888f193505050501580156106ec573d6000803e3d6000fd5b60648054604051631db05e9760e31b815233600482015230602482015260ff84166044820152600092620100009092046001600160a01b03169163ed82f4b89101602060405180830381865afa158015610851573d6000803e3d6000fd5b505050506040513d601f19601f820116820180604052508101906108759190610b72565b92915050565b606454610100900460ff166108e65760405162461bcd60e51b815260206004820152602b60248201527f496e697469616c697a61626c653a20636f6e7472616374206973206e6f74206960448201526a6e697469616c697a696e6760a81b6064820152608401610253565b6064805462010000600160b01b031916620100006001600160a01b038416908102919091179091556040519081527f4f8cfde3439a1a302c21ca51eec26086efbfd940b8c0279889fc6bb6e73ecc66906020016102ae565b6001600160a01b038116811461095357600080fd5b50565b60006020828403121561096857600080fd5b81356109738161093e565b9392505050565b60006020828403121561098c57600080fd5b5035919050565b600080604083850312156109a657600080fd5b82356109b18161093e565b946020939093013593505050565b801515811461095357600080fd5b6000602082840312156109df57600080fd5b8135610973816109bf565b60008083601f8401126109fc57600080fd5b50813567ffffffffffffffff811115610a1457600080fd5b6020830191508360208260051b8501011115610a2f57600080fd5b9250929050565b60008060008060408587031215610a4c57600080fd5b843567ffffffffffffffff80821115610a6457600080fd5b610a70888389016109ea565b90965094506020870135915080821115610a8957600080fd5b50610a96878288016109ea565b95989497509550505050565b600060208083528351808285015260005b81811015610acf57858101830151858201604001528201610ab3565b81811115610ae1576000604083870101525b50601f01601f1916929092016040019392505050565b600060208284031215610b0957600080fd5b81516109738161093e565b634e487b7160e01b600052603260045260246000fd5b634e487b7160e01b600052601160045260246000fd5b6000600019821415610b5457610b54610b2a565b5060010190565b600082821015610b6d57610b6d610b2a565b500390565b600060208284031215610b8457600080fd5b8151610973816109bf56fea264697066735822122082193e6ac068720ec41c3d45e7f440b16b41757ac5e06aa15dc9a394bb8e20ed64736f6c634300080c0033",
  "linkReferences": {},
  "deployedLinkReferences": {}
}