{
  "_format": "hh-sol-artifact-1",
  "contractName": "MockUpgradeableApp",
  "sourceName": "contracts/mock/MockUpgradeableApp.sol",
  "abi": [
    {
      "inputs": [],
      "name": "getImplementationSlot",
      "outputs": [
        {
          "components": [
            {
              "internalType": "address",
              "name": "value",
              "type": "address"
            }
          ],
          "internalType": "struct StorageSlot.AddressSlot",
          "name": "",
          "type": "tuple"
        }
      ],
      "stateMutability": "pure",
      "type": "function"
    }
  ],
  "bytecode": "0x608060405234801561001057600080fd5b50610110806100206000396000f3fe6080604052348015600f57600080fd5b506004361060285760003560e01c80637a34c82114602d575b600080fd5b6033604f565b60405190516001600160a01b0316815260200160405180910390f35b60408051602081019091526000815260646081565b604080516020810190915290546001600160a01b03168152919050565b600060b160ae60017f797d7c7d0df25d67e029b044c5bcb2b89d68f6483382b5f85e64485950ed88d160b6565b90565b905090565b60008282101560d557634e487b7160e01b600052601160045260246000fd5b50039056fea2646970667358221220d342e99782263264bd7a955755398a786a0c68f535628bbe17b084457144824b64736f6c634300080c0033",
  "linkReferences": {},
  "deployedLinkReferences": {}
}