{
  "_format": "hh-sol-artifact-1",
  "contractName": "ERC721WhitelistSale",
  "sourceName": "contracts/apps/ERC721Sale/ERC721WhitelistSale.sol",
  "abi": [
    {
      "anonymous": false,
      "inputs": [
        {
          "indexed": false,
          "internalType": "contract IKernel",
          "name": "kernel",
          "type": "address"
        }
      ],
      "name": "Init",
      "type": "event"
    },
    {
      "anonymous": false,
      "inputs": [
        {
          "indexed": false,
          "internalType": "address",
          "name": "code",
          "type": "address"
        }
      ],
      "name": "Upgrade",
      "type": "event"
    },
    {
      "inputs": [],
      "name": "CONTROLLER",
      "outputs": [
        {
          "internalType": "uint8",
          "name": "",
          "type": "uint8"
        }
      ],
      "stateMutability": "view",
      "type": "function"
    },
    {
      "inputs": [
        {
          "internalType": "bytes32[]",
          "name": "proof",
          "type": "bytes32[]"
        },
        {
          "internalType": "bytes32",
          "name": "tierValue",
          "type": "bytes32"
        }
      ],
      "name": "buy",
      "outputs": [],
      "stateMutability": "payable",
      "type": "function"
    },
    {
      "inputs": [],
      "name": "claimLimit",
      "outputs": [
        {
          "internalType": "uint64",
          "name": "",
          "type": "uint64"
        }
      ],
      "stateMutability": "view",
      "type": "function"
    },
    {
      "inputs": [],
      "name": "implementation",
      "outputs": [
        {
          "internalType": "address",
          "name": "",
          "type": "address"
        }
      ],
      "stateMutability": "view",
      "type": "function"
    },
    {
      "inputs": [
        {
          "internalType": "contract IKernel",
          "name": "kernel",
          "type": "address"
        },
        {
          "internalType": "uint64",
          "name": "claimLimit_",
          "type": "uint64"
        }
      ],
      "name": "initialize",
      "outputs": [],
      "stateMutability": "nonpayable",
      "type": "function"
    },
    {
      "inputs": [],
      "name": "isActive",
      "outputs": [
        {
          "internalType": "bool",
          "name": "",
          "type": "bool"
        }
      ],
      "stateMutability": "view",
      "type": "function"
    },
    {
      "inputs": [],
      "name": "merkleProofIpfsHash",
      "outputs": [
        {
          "internalType": "bytes",
          "name": "",
          "type": "bytes"
        }
      ],
      "stateMutability": "view",
      "type": "function"
    },
    {
      "inputs": [
        {
          "internalType": "bool",
          "name": "isActive_",
          "type": "bool"
        }
      ],
      "name": "setActive",
      "outputs": [],
      "stateMutability": "nonpayable",
      "type": "function"
    },
    {
      "inputs": [
        {
          "internalType": "bytes32",
          "name": "merkleRoot",
          "type": "bytes32"
        },
        {
          "internalType": "bytes",
          "name": "merkleProofIpfsHash_",
          "type": "bytes"
        }
      ],
      "name": "setMerkleTree",
      "outputs": [],
      "stateMutability": "nonpayable",
      "type": "function"
    },
    {
      "inputs": [
        {
          "internalType": "bytes32[]",
          "name": "tierValues",
          "type": "bytes32[]"
        },
        {
          "internalType": "uint256[]",
          "name": "tierPrices_",
          "type": "uint256[]"
        }
      ],
      "name": "setPaymentPolicy",
      "outputs": [],
      "stateMutability": "nonpayable",
      "type": "function"
    },
    {
      "inputs": [
        {
          "internalType": "bytes32",
          "name": "",
          "type": "bytes32"
        }
      ],
      "name": "tierPrices",
      "outputs": [
        {
          "internalType": "uint256",
          "name": "",
          "type": "uint256"
        }
      ],
      "stateMutability": "view",
      "type": "function"
    },
    {
      "inputs": [
        {
          "internalType": "address",
          "name": "appCode",
          "type": "address"
        }
      ],
      "name": "upgrade",
      "outputs": [],
      "stateMutability": "nonpayable",
      "type": "function"
    }
  ],
  "bytecode": "0x60a06040526064805460ff60b01b19169055610019610031565b60ff1660805234801561002b57600080fd5b506100cc565b606454600090600f600160b01b90910460ff161061005157610051610088565b60648054600160b01b900460ff1690601661006b8361009e565b91906101000a81548160ff021916908360ff160217905550905090565b634e487b7160e01b600052600160045260246000fd5b600060ff821660ff8114156100c357634e487b7160e01b600052601160045260246000fd5b60010192915050565b6080516112176100fc6000396000818161024501528181610454015281816108b7015261093701526112176000f3fe6080604052600436106100a75760003560e01c8063ae4a40d511610064578063ae4a40d5146101a5578063b00f24cf146101b8578063be610676146101d8578063c0c6d00e14610213578063ee0fc12114610233578063f8f1fc301461027957600080fd5b80630900f010146100ac5780631798de81146100ce57806322f3e2d4146100ee5780635c60da1b1461011d5780636e13e4301461014a578063acec338a14610185575b600080fd5b3480156100b857600080fd5b506100cc6100c7366004610e80565b61029b565b005b3480156100da57600080fd5b506100cc6100e9366004610ea4565b610357565b3480156100fa57600080fd5b5060c9546101089060ff1681565b60405190151581526020015b60405180910390f35b34801561012957600080fd5b50610132610439565b6040516001600160a01b039091168152602001610114565b34801561015657600080fd5b50610177610165366004610eea565b60c86020526000908152604090205481565b604051908152602001610114565b34801561019157600080fd5b506100cc6101a0366004610f11565b610452565b6100cc6101b3366004610f7a565b6104d5565b3480156101c457600080fd5b506100cc6101d3366004610fc6565b6108b5565b3480156101e457600080fd5b5061012f546101fa9067ffffffffffffffff1681565b60405167ffffffffffffffff9091168152602001610114565b34801561021f57600080fd5b506100cc61022e366004611042565b610935565b34801561023f57600080fd5b506102677f000000000000000000000000000000000000000000000000000000000000000081565b60405160ff9091168152602001610114565b34801561028557600080fd5b5061028e610a51565b60405161011491906110fb565b60645460408051808201909152600d81526c20aaaa2427a924ad20aa24a7a760991b6020820152906201000090046001600160a01b031633146102fa5760405162461bcd60e51b81526004016102f191906110fb565b60405180910390fd5b5080610304610ae0565b80546001600160a01b0319166001600160a01b0392831617905560405190821681527ff78721226efe9a1bb678189a16d1554928b9f2192e2cb93eeda83b79fa40007d906020015b60405180910390a150565b606454610100900460ff166103725760645460ff1615610376565b303b155b6103d95760405162461bcd60e51b815260206004820152602e60248201527f496e697469616c697a61626c653a20636f6e747261637420697320616c72656160448201526d191e481a5b9a5d1a585b1a5e995960921b60648201526084016102f1565b606454610100900460ff161580156103fb576064805461ffff19166101011790555b61040483610b18565b61012f805467ffffffffffffffff191667ffffffffffffffff84161790558015610434576064805461ff00191690555b505050565b6000610443610ae0565b546001600160a01b0316919050565b7f000000000000000000000000000000000000000000000000000000000000000061047c81610bdb565b6040518060400160405280600d81526020016c20aaaa2427a924ad20aa24a7a760991b815250906104c05760405162461bcd60e51b81526004016102f191906110fb565b505060c9805460ff1916911515919091179055565b61012d5460408051808201909152600e81526d24a724aa24a0a624ad20aa24a7a760911b60208201529061051c5760405162461bcd60e51b81526004016102f191906110fb565b50600081815260c86020526040902054801580159061053b5750803410155b6040518060400160405280600a8152602001692b20a624a220aa24a7a760b11b8152509061057c5760405162461bcd60e51b81526004016102f191906110fb565b5060c95460408051808201909152600b81526a554e415641494c41424c4560a81b60208201529060ff166105c35760405162461bcd60e51b81526004016102f191906110fb565b50600061063d8585808060200260200160405190810160405280939291908181526020018383602002808284376000920191909152505061012d546040516bffffffffffffffffffffffff193360601b16602082015290925060340190505b60405160208183030381529060405280519060200120610c63565b9050806106ee576106ab8585808060200260200160405190810160405280939291908181526020018383602002808284376000920191909152505061012d546040516bffffffffffffffffffffffff193360601b166020820152603481018990529092506054019050610622565b6040518060400160405280600a8152602001692b20a624a220aa24a7a760b11b815250906106ec5760405162461bcd60e51b81526004016102f191906110fb565b505b61012f5467ffffffffffffffff161561077f5761012f5433600090815261012e602052604090205467ffffffffffffffff9091161061077f5760405162461bcd60e51b815260206004820152602760248201527f496e76616c696420616d6f756e74206f66204e46547320666f722074686973206044820152666164647265737360c81b60648201526084016102f1565b33600090815261012e6020526040812080549161079b83611124565b91905055506107a8610c79565b6064546040516545524337323160d01b6020820152620100009091046001600160a01b03169063dae3f63490602601604051602081830303815290604052805190602001206040518263ffffffff1660e01b815260040161080b91815260200190565b602060405180830381865afa158015610828573d6000803e3d6000fd5b505050506040513d601f19601f8201168201806040525081019061084c919061113f565b604051632cfd300560e01b8152336004820152602481018590526001600160a01b039190911690632cfd300590604401600060405180830381600087803b15801561089657600080fd5b505af11580156108aa573d6000803e3d6000fd5b505050505050505050565b7f00000000000000000000000000000000000000000000000000000000000000006108df81610bdb565b6040518060400160405280600d81526020016c20aaaa2427a924ad20aa24a7a760991b815250906109235760405162461bcd60e51b81526004016102f191906110fb565b5061092f848484610d48565b50505050565b7f000000000000000000000000000000000000000000000000000000000000000061095f81610bdb565b6040518060400160405280600d81526020016c20aaaa2427a924ad20aa24a7a760991b815250906109a35760405162461bcd60e51b81526004016102f191906110fb565b5060408051808201909152600a8152692b20a624a220aa24a7a760b11b60208201528483146109e55760405162461bcd60e51b81526004016102f191906110fb565b5060005b808514610a4957838382818110610a0257610a0261115c565b9050602002013560c86000888885818110610a1f57610a1f61115c565b9050602002013581526020019081526020016000208190555080610a4290611124565b90506109e9565b505050505050565b61012c8054610a5f90611172565b80601f0160208091040260200160405190810160405280929190818152602001828054610a8b90611172565b8015610ad85780601f10610aad57610100808354040283529160200191610ad8565b820191906000526020600020905b815481529060010190602001808311610abb57829003601f168201915b505050505081565b6000610b13610b1060017f797d7c7d0df25d67e029b044c5bcb2b89d68f6483382b5f85e64485950ed88d16111ad565b90565b905090565b606454610100900460ff16610b835760405162461bcd60e51b815260206004820152602b60248201527f496e697469616c697a61626c653a20636f6e7472616374206973206e6f74206960448201526a6e697469616c697a696e6760a81b60648201526084016102f1565b6064805462010000600160b01b031916620100006001600160a01b038416908102919091179091556040519081527f4f8cfde3439a1a302c21ca51eec26086efbfd940b8c0279889fc6bb6e73ecc669060200161034c565b60648054604051631db05e9760e31b815233600482015230602482015260ff84166044820152600092620100009092046001600160a01b03169163ed82f4b89101602060405180830381865afa158015610c39573d6000803e3d6000fd5b505050506040513d601f19601f82011682018060405250810190610c5d91906111c4565b92915050565b600082610c708584610d5b565b14949350505050565b6064546040516336b8fd8d60e21b81527f06aa03964db1f7257357ef09714a5f0ca3633723df419e97015e0c7a3e83edb760048201526000916201000090046001600160a01b03169063dae3f63490602401602060405180830381865afa158015610ce8573d6000803e3d6000fd5b505050506040513d601f19601f82011682018060405250810190610d0c919061113f565b6040519091506001600160a01b038216903480156108fc02916000818181858888f19350505050158015610d44573d6000803e3d6000fd5b5050565b61012d83905561092f61012c8383610dcf565b600081815b8451811015610dc7576000858281518110610d7d57610d7d61115c565b60200260200101519050808311610da35760008381526020829052604090209250610db4565b600081815260208490526040902092505b5080610dbf81611124565b915050610d60565b509392505050565b828054610ddb90611172565b90600052602060002090601f016020900481019282610dfd5760008555610e43565b82601f10610e165782800160ff19823516178555610e43565b82800160010185558215610e43579182015b82811115610e43578235825591602001919060010190610e28565b50610e4f929150610e53565b5090565b5b80821115610e4f5760008155600101610e54565b6001600160a01b0381168114610e7d57600080fd5b50565b600060208284031215610e9257600080fd5b8135610e9d81610e68565b9392505050565b60008060408385031215610eb757600080fd5b8235610ec281610e68565b9150602083013567ffffffffffffffff81168114610edf57600080fd5b809150509250929050565b600060208284031215610efc57600080fd5b5035919050565b8015158114610e7d57600080fd5b600060208284031215610f2357600080fd5b8135610e9d81610f03565b60008083601f840112610f4057600080fd5b50813567ffffffffffffffff811115610f5857600080fd5b6020830191508360208260051b8501011115610f7357600080fd5b9250929050565b600080600060408486031215610f8f57600080fd5b833567ffffffffffffffff811115610fa657600080fd5b610fb286828701610f2e565b909790965060209590950135949350505050565b600080600060408486031215610fdb57600080fd5b83359250602084013567ffffffffffffffff80821115610ffa57600080fd5b818601915086601f83011261100e57600080fd5b81358181111561101d57600080fd5b87602082850101111561102f57600080fd5b6020830194508093505050509250925092565b6000806000806040858703121561105857600080fd5b843567ffffffffffffffff8082111561107057600080fd5b61107c88838901610f2e565b9096509450602087013591508082111561109557600080fd5b506110a287828801610f2e565b95989497509550505050565b6000815180845260005b818110156110d4576020818501810151868301820152016110b8565b818111156110e6576000602083870101525b50601f01601f19169290920160200192915050565b602081526000610e9d60208301846110ae565b634e487b7160e01b600052601160045260246000fd5b60006000198214156111385761113861110e565b5060010190565b60006020828403121561115157600080fd5b8151610e9d81610e68565b634e487b7160e01b600052603260045260246000fd5b600181811c9082168061118657607f821691505b602082108114156111a757634e487b7160e01b600052602260045260246000fd5b50919050565b6000828210156111bf576111bf61110e565b500390565b6000602082840312156111d657600080fd5b8151610e9d81610f0356fea2646970667358221220a7abd42f2a964eb1a239cb5a4e923a9d00f7c5f466b81ee532b88553182271c064736f6c634300080c0033",
  "linkReferences": {},
  "deployedLinkReferences": {}
}