{
  "_format": "hh-sol-artifact-1",
  "contractName": "DAOTemplates",
  "sourceName": "contracts/templates/DAOTemplates.sol",
  "abi": [
    {
      "inputs": [
        {
          "internalType": "contract IUpdateManager",
          "name": "updateManagerProxy_",
          "type": "address"
        }
      ],
      "stateMutability": "nonpayable",
      "type": "constructor"
    },
    {
      "anonymous": false,
      "inputs": [
        {
          "indexed": false,
          "internalType": "contract Kernel",
          "name": "kernel",
          "type": "address"
        },
        {
          "indexed": false,
          "internalType": "enum Models.AdditionalModules[]",
          "name": "modules",
          "type": "uint8[]"
        },
        {
          "components": [
            {
              "components": [
                {
                  "internalType": "address[]",
                  "name": "admins",
                  "type": "address[]"
                }
              ],
              "internalType": "struct Models.AdminSettings",
              "name": "adminSettings",
              "type": "tuple"
            },
            {
              "components": [
                {
                  "internalType": "address",
                  "name": "openseaOwner",
                  "type": "address"
                },
                {
                  "internalType": "string",
                  "name": "url",
                  "type": "string"
                },
                {
                  "internalType": "string",
                  "name": "name",
                  "type": "string"
                },
                {
                  "internalType": "string",
                  "name": "symbol",
                  "type": "string"
                },
                {
                  "components": [
                    {
                      "internalType": "bytes32",
                      "name": "id",
                      "type": "bytes32"
                    },
                    {
                      "internalType": "bool",
                      "name": "isTransferable",
                      "type": "bool"
                    },
                    {
                      "internalType": "uint32",
                      "name": "transferUnlocksAtHours",
                      "type": "uint32"
                    },
                    {
                      "internalType": "uint256",
                      "name": "maxAmount",
                      "type": "uint256"
                    }
                  ],
                  "internalType": "struct Models.TierInfo[]",
                  "name": "tiers",
                  "type": "tuple[]"
                }
              ],
              "internalType": "struct Models.NFTSettings",
              "name": "nftSettings",
              "type": "tuple"
            },
            {
              "components": [
                {
                  "internalType": "bytes32[]",
                  "name": "tiersValues",
                  "type": "bytes32[]"
                },
                {
                  "internalType": "uint256[]",
                  "name": "tiersPrices",
                  "type": "uint256[]"
                }
              ],
              "internalType": "struct Models.SaleSettings",
              "name": "openSaleSettings",
              "type": "tuple"
            },
            {
              "components": [
                {
                  "internalType": "bytes32[]",
                  "name": "tiersValues",
                  "type": "bytes32[]"
                },
                {
                  "internalType": "uint256[]",
                  "name": "tiersPrices",
                  "type": "uint256[]"
                }
              ],
              "internalType": "struct Models.SaleSettings",
              "name": "whiteListSaleSettings",
              "type": "tuple"
            }
          ],
          "indexed": false,
          "internalType": "struct Models.DeploymentSettings",
          "name": "deploymentSettings",
          "type": "tuple"
        }
      ],
      "name": "Deployed",
      "type": "event"
    },
    {
      "anonymous": false,
      "inputs": [
        {
          "indexed": true,
          "internalType": "address",
          "name": "previousOwner",
          "type": "address"
        },
        {
          "indexed": true,
          "internalType": "address",
          "name": "newOwner",
          "type": "address"
        }
      ],
      "name": "OwnershipTransferred",
      "type": "event"
    },
    {
      "inputs": [
        {
          "internalType": "enum Models.AdditionalModules[]",
          "name": "modules",
          "type": "uint8[]"
        },
        {
          "components": [
            {
              "components": [
                {
                  "internalType": "address[]",
                  "name": "admins",
                  "type": "address[]"
                }
              ],
              "internalType": "struct Models.AdminSettings",
              "name": "adminSettings",
              "type": "tuple"
            },
            {
              "components": [
                {
                  "internalType": "address",
                  "name": "openseaOwner",
                  "type": "address"
                },
                {
                  "internalType": "string",
                  "name": "url",
                  "type": "string"
                },
                {
                  "internalType": "string",
                  "name": "name",
                  "type": "string"
                },
                {
                  "internalType": "string",
                  "name": "symbol",
                  "type": "string"
                },
                {
                  "components": [
                    {
                      "internalType": "bytes32",
                      "name": "id",
                      "type": "bytes32"
                    },
                    {
                      "internalType": "bool",
                      "name": "isTransferable",
                      "type": "bool"
                    },
                    {
                      "internalType": "uint32",
                      "name": "transferUnlocksAtHours",
                      "type": "uint32"
                    },
                    {
                      "internalType": "uint256",
                      "name": "maxAmount",
                      "type": "uint256"
                    }
                  ],
                  "internalType": "struct Models.TierInfo[]",
                  "name": "tiers",
                  "type": "tuple[]"
                }
              ],
              "internalType": "struct Models.NFTSettings",
              "name": "nftSettings",
              "type": "tuple"
            },
            {
              "components": [
                {
                  "internalType": "bytes32[]",
                  "name": "tiersValues",
                  "type": "bytes32[]"
                },
                {
                  "internalType": "uint256[]",
                  "name": "tiersPrices",
                  "type": "uint256[]"
                }
              ],
              "internalType": "struct Models.SaleSettings",
              "name": "openSaleSettings",
              "type": "tuple"
            },
            {
              "components": [
                {
                  "internalType": "bytes32[]",
                  "name": "tiersValues",
                  "type": "bytes32[]"
                },
                {
                  "internalType": "uint256[]",
                  "name": "tiersPrices",
                  "type": "uint256[]"
                }
              ],
              "internalType": "struct Models.SaleSettings",
              "name": "whiteListSaleSettings",
              "type": "tuple"
            }
          ],
          "internalType": "struct Models.DeploymentSettings",
          "name": "deploymentSettings",
          "type": "tuple"
        },
        {
          "internalType": "address",
          "name": "treasury",
          "type": "address"
        }
      ],
      "name": "deploy",
      "outputs": [],
      "stateMutability": "nonpayable",
      "type": "function"
    },
    {
      "inputs": [],
      "name": "owner",
      "outputs": [
        {
          "internalType": "address",
          "name": "",
          "type": "address"
        }
      ],
      "stateMutability": "view",
      "type": "function"
    },
    {
      "inputs": [],
      "name": "renounceOwnership",
      "outputs": [],
      "stateMutability": "nonpayable",
      "type": "function"
    },
    {
      "inputs": [
        {
          "internalType": "address",
          "name": "newOwner",
          "type": "address"
        }
      ],
      "name": "transferOwnership",
      "outputs": [],
      "stateMutability": "nonpayable",
      "type": "function"
    },
    {
      "inputs": [],
      "name": "updateManager",
      "outputs": [
        {
          "internalType": "contract IUpdateManager",
          "name": "",
          "type": "address"
        }
      ],
      "stateMutability": "view",
      "type": "function"
    }
  ],
  "bytecode": "0x60806040523480156200001157600080fd5b5060405162002958380380620029588339810160408190526200003491620000b5565b6200003f3362000065565b600180546001600160a01b0319166001600160a01b0392909216919091179055620000e7565b600080546001600160a01b038381166001600160a01b0319831681178455604051919092169283917f8be0079c531659141344cd1fd0a4f28419497f9722a3daafe3b4186f6b6457e09190a35050565b600060208284031215620000c857600080fd5b81516001600160a01b0381168114620000e057600080fd5b9392505050565b61286180620000f76000396000f3fe60806040523480156200001157600080fd5b50600436106200005e5760003560e01c806323410a3c1462000063578063560108061462000093578063715018a614620000ac5780638da5cb5b14620000b6578063f2fde38b14620000c8575b600080fd5b60015462000077906001600160a01b031681565b6040516001600160a01b03909116815260200160405180910390f35b620000aa620000a436600462001b8e565b620000df565b005b620000aa620004cc565b6000546001600160a01b031662000077565b620000aa620000d936600462001c40565b6200053a565b6001546040516512d15493915360d21b60208201526000916001600160a01b03169063ba11e6e690602601604051602081830303815290604052805190602001206040518263ffffffff1660e01b81526004016200013f91815260200190565b602060405180830381865afa1580156200015d573d6000803e3d6000fd5b505050506040513d601f19601f8201168201806040525081019062000183919062001c67565b604051620001919062001b3f565b6001600160a01b039091168152602001604051809103906000f080158015620001be573d6000803e3d6000fd5b5060015460405163485cc95560e01b81526001600160a01b03918216600482015230602482015291925082169063485cc95590604401600060405180830381600087803b1580156200020f57600080fd5b505af115801562000224573d6000803e3d6000fd5b506200024292508391506200023c9050858062001c87565b6200060b565b5060006200025f8262000259602087018762001ca8565b620008e8565b905060005b858110156200032e57600087878381811062000284576200028462001cbf565b90506020020160208101906200029b919062001ce5565b90506000816001811115620002b457620002b462001d03565b1415620002dd57620002d68484620002d060408a018a62001d19565b62000ff6565b5062000318565b6001816001811115620002f457620002f462001d03565b141562000318576200031684846200031060608a018a62001d19565b6200166a565b505b5080620003258162001d46565b91505062000264565b506001600160a01b03831615620003ca57604051637553b8bb60e11b81527f06aa03964db1f7257357ef09714a5f0ca3633723df419e97015e0c7a3e83edb760048201526001600160a01b0384811660248301526000604483015283169063eaa7717690606401600060405180830381600087803b158015620003b057600080fd5b505af1158015620003c5573d6000803e3d6000fd5b505050505b816001600160a01b0316637d2a1932604051602001620003f490635355444f60e01b815260040190565b604051602081830303815290604052805190602001206200041d6000546001600160a01b031690565b6040516001600160e01b031960e085901b16815260048101929092526001600160a01b0316602482015260006044820152606401600060405180830381600087803b1580156200046c57600080fd5b505af115801562000481573d6000803e3d6000fd5b505050507f4f991a774ba7d00e5bb09d650d996a5178b0c5cf9d6d1b855536865be029940d82878787604051620004bc94939291906200209c565b60405180910390a1505050505050565b6000546001600160a01b031633146200052c5760405162461bcd60e51b815260206004820181905260248201527f4f776e61626c653a2063616c6c6572206973206e6f7420746865206f776e657260448201526064015b60405180910390fd5b62000538600062001aef565b565b6000546001600160a01b03163314620005965760405162461bcd60e51b815260206004820181905260248201527f4f776e61626c653a2063616c6c6572206973206e6f7420746865206f776e6572604482015260640162000523565b6001600160a01b038116620005fd5760405162461bcd60e51b815260206004820152602660248201527f4f776e61626c653a206e6577206f776e657220697320746865207a65726f206160448201526564647265737360d01b606482015260840162000523565b620006088162001aef565b50565b60015460405160009182916001600160a01b039091169063ba11e6e6906200063690602001620021e0565b604051602081830303815290604052805190602001206040518263ffffffff1660e01b81526004016200066b91815260200190565b602060405180830381865afa15801562000689573d6000803e3d6000fd5b505050506040513d601f19601f82011682018060405250810190620006af919062001c67565b90506000846001600160a01b0316636e54aa14604051602001620006d390620021e0565b60408051601f198184030181529190528051602090910120846001600160a01b03811663946d92048a620007088b80620021fc565b6040516024016200071c9392919062002249565b60408051808303601f1901815291815260208201805160e094851b6001600160e01b03909116179052519186901b6001600160e01b0319168252620007689493925090600401620022c9565b6020604051808303816000875af115801562000788573d6000803e3d6000fd5b505050506040513d601f19601f82011682018060405250810190620007ae919062001c67565b9050846001600160a01b03166399c8240f604051602001620007da90635355444f60e01b815260040190565b604051602081830303815290604052805190602001206040516020016200080190620021e0565b60405160208183030381529060405280519060200120846001600160a01b031663f7de6b966040518163ffffffff1660e01b8152600401602060405180830381865afa15801562000856573d6000803e3d6000fd5b505050506040513d601f19601f820116820180604052508101906200087c9190620022f5565b6040516001600160e01b031960e086901b1681526004810193909352602483019190915260ff166044820152606401600060405180830381600087803b158015620008c657600080fd5b505af1158015620008db573d6000803e3d6000fd5b5092979650505050505050565b6001546040516545524337323160d01b602082015260009182916001600160a01b039091169063ba11e6e690602601604051602081830303815290604052805190602001206040518263ffffffff1660e01b81526004016200094c91815260200190565b602060405180830381865afa1580156200096a573d6000803e3d6000fd5b505050506040513d601f19601f8201168201806040525081019062000990919062001c67565b90506000846001600160a01b0316636e54aa14604051602001620009c0906545524337323160d01b815260060190565b6040516020818303038152906040528051906020012084856001600160a01b0316635c7a3ef76040518060a001604052808c6001600160a01b031681526020018b600001602081019062000a15919062001c40565b6001600160a01b031681526020018b806020019062000a3591906200231a565b8080601f01602080910402602001604051908101604052809392919081815260200183838082843760009201919091525050509082525060200162000a7e60408d018d6200231a565b8080601f01602080910402602001604051908101604052809392919081815260200183838082843760009201919091525050509082525060200162000ac760608d018d6200231a565b8080601f016020809104026020016040519081016040528093929190818152602001838380828437600092019190915250505091525060405162000b0f919060240162002364565b60408051808303601f1901815291815260208201805160e094851b6001600160e01b03909116179052519186901b6001600160e01b031916825262000b5b9493925090600401620022c9565b6020604051808303816000875af115801562000b7b573d6000803e3d6000fd5b505050506040513d601f19601f8201168201806040525081019062000ba1919062001c67565b9050846001600160a01b03166399c8240f60405160200162000bcd90635355444f60e01b815260040190565b6040516020818303038152906040528051906020012060405160200162000c00906545524337323160d01b815260060190565b60405160208183030381529060405280519060200120846001600160a01b031663ee0fc1216040518163ffffffff1660e01b8152600401602060405180830381865afa15801562000c55573d6000803e3d6000fd5b505050506040513d601f19601f8201168201806040525081019062000c7b9190620022f5565b6040516001600160e01b031960e086901b1681526004810193909352602483019190915260ff166044820152606401600060405180830381600087803b15801562000cc557600080fd5b505af115801562000cda573d6000803e3d6000fd5b50505050846001600160a01b03166399c8240f60405160200162000cfe90620021e0565b6040516020818303038152906040528051906020012060405160200162000d31906545524337323160d01b815260060190565b60405160208183030381529060405280519060200120846001600160a01b031663ee0fc1216040518163ffffffff1660e01b8152600401602060405180830381865afa15801562000d86573d6000803e3d6000fd5b505050506040513d601f19601f8201168201806040525081019062000dac9190620022f5565b6040516001600160e01b031960e086901b1681526004810193909352602483019190915260ff166044820152606401600060405180830381600087803b15801562000df657600080fd5b505af115801562000e0b573d6000803e3d6000fd5b5050505060005b62000e216080860186620023e2565b9050811462000fed57600062000e3b6080870187620023e2565b8381811062000e4e5762000e4e62001cbf565b90506080020180360381019062000e6691906200242f565b80516060820151604051630b5361e960e31b81529293506001600160a01b03861692635a9b0f489262000e9e929091600401620024b5565b600060405180830381600087803b15801562000eb957600080fd5b505af115801562000ece573d6000803e3d6000fd5b50505050826001600160a01b0316635a9b0f488260000151836020015162000ef857600062000efb565b60015b6040516001600160e01b031960e085901b16815262000f22929160ff169060040162002513565b600060405180830381600087803b15801562000f3d57600080fd5b505af115801562000f52573d6000803e3d6000fd5b5050825160408401516001600160a01b0387169350635a9b0f48925062000f809063ffffffff164262002576565b6040516001600160e01b031960e085901b16815262000fa492919060040162002591565b600060405180830381600087803b15801562000fbf57600080fd5b505af115801562000fd4573d6000803e3d6000fd5b50505050508062000fe59062001d46565b905062000e12565b50949350505050565b6001546040516f4552433732315f4f50454e5f53414c4560801b602082015260009182916001600160a01b039091169063ba11e6e690603001604051602081830303815290604052805190602001206040518263ffffffff1660e01b81526004016200106491815260200190565b602060405180830381865afa15801562001082573d6000803e3d6000fd5b505050506040513d601f19601f82011682018060405250810190620010a8919062001c67565b90506000856001600160a01b0316636e54aa14604051602001620010e2906f4552433732315f4f50454e5f53414c4560801b815260100190565b6040516020818303038152906040528051906020012084856001600160a01b031663c4d66de88b6040516024016200112991906001600160a01b0391909116815260200190565b60408051808303601f1901815291815260208201805160e094851b6001600160e01b03909116179052519186901b6001600160e01b0319168252620011759493925090600401620022c9565b6020604051808303816000875af115801562001195573d6000803e3d6000fd5b505050506040513d601f19601f82011682018060405250810190620011bb919062001c67565b9050856001600160a01b03166399c8240f604051602001620011e790635355444f60e01b815260040190565b6040516020818303038152906040528051906020012060405160200162001224906f4552433732315f4f50454e5f53414c4560801b815260100190565b60405160208183030381529060405280519060200120846001600160a01b031663ee0fc1216040518163ffffffff1660e01b8152600401602060405180830381865afa15801562001279573d6000803e3d6000fd5b505050506040513d601f19601f820116820180604052508101906200129f9190620022f5565b6040516001600160e01b031960e086901b1681526004810193909352602483019190915260ff166044820152606401600060405180830381600087803b158015620012e957600080fd5b505af1158015620012fe573d6000803e3d6000fd5b50505050856001600160a01b03166399c8240f6040516020016200132290620021e0565b604051602081830303815290604052805190602001206040516020016200135f906f4552433732315f4f50454e5f53414c4560801b815260100190565b60405160208183030381529060405280519060200120846001600160a01b031663ee0fc1216040518163ffffffff1660e01b8152600401602060405180830381865afa158015620013b4573d6000803e3d6000fd5b505050506040513d601f19601f82011682018060405250810190620013da9190620022f5565b6040516001600160e01b031960e086901b1681526004810193909352602483019190915260ff166044820152606401600060405180830381600087803b1580156200142457600080fd5b505af115801562001439573d6000803e3d6000fd5b50505050856001600160a01b03166399c8240f60405160200162001473906f4552433732315f4f50454e5f53414c4560801b815260100190565b60405160208183030381529060405280519060200120604051602001620014a6906545524337323160d01b815260060190565b60405160208183030381529060405280519060200120886001600160a01b031663ee0fc1216040518163ffffffff1660e01b8152600401602060405180830381865afa158015620014fb573d6000803e3d6000fd5b505050506040513d601f19601f82011682018060405250810190620015219190620022f5565b6040516001600160e01b031960e086901b1681526004810193909352602483019190915260ff166044820152606401600060405180830381600087803b1580156200156b57600080fd5b505af115801562001580573d6000803e3d6000fd5b5050506001600160a01b038216905063c0c6d00e620015a08680620021fc565b620015af6020890189620021fc565b6040518563ffffffff1660e01b8152600401620015d0949392919062002602565b600060405180830381600087803b158015620015eb57600080fd5b505af115801562001600573d6000803e3d6000fd5b505060405163567619c560e11b8152600160048201526001600160a01b038416925063acec338a9150602401600060405180830381600087803b1580156200164757600080fd5b505af11580156200165c573d6000803e3d6000fd5b509298975050505050505050565b600154604051744552433732315f57484954454c4953545f53414c4560581b602082015260009182916001600160a01b039091169063ba11e6e690603501604051602081830303815290604052805190602001206040518263ffffffff1660e01b8152600401620016dd91815260200190565b602060405180830381865afa158015620016fb573d6000803e3d6000fd5b505050506040513d601f19601f8201168201806040525081019062001721919062001c67565b90506000856001600160a01b0316636e54aa146040516020016200176090744552433732315f57484954454c4953545f53414c4560581b815260150190565b60408051601f198184030181529082905280516020909101206001600160a01b038a1660248301526000604483015290859060640160408051601f198184030181529181526020820180516001600160e01b0316631798de8160e01b179052516001600160e01b031960e086901b168152620017e293929190600401620022c9565b6020604051808303816000875af115801562001802573d6000803e3d6000fd5b505050506040513d601f19601f8201168201806040525081019062001828919062001c67565b9050856001600160a01b03166399c8240f6040516020016200185490635355444f60e01b815260040190565b604051602081830303815290604052805190602001206040516020016200189690744552433732315f57484954454c4953545f53414c4560581b815260150190565b60405160208183030381529060405280519060200120846001600160a01b031663ee0fc1216040518163ffffffff1660e01b8152600401602060405180830381865afa158015620018eb573d6000803e3d6000fd5b505050506040513d601f19601f82011682018060405250810190620019119190620022f5565b6040516001600160e01b031960e086901b1681526004810193909352602483019190915260ff166044820152606401600060405180830381600087803b1580156200195b57600080fd5b505af115801562001970573d6000803e3d6000fd5b50505050856001600160a01b03166399c8240f6040516020016200199490620021e0565b60405160208183030381529060405280519060200120604051602001620019d690744552433732315f57484954454c4953545f53414c4560581b815260150190565b60405160208183030381529060405280519060200120846001600160a01b031663ee0fc1216040518163ffffffff1660e01b8152600401602060405180830381865afa15801562001a2b573d6000803e3d6000fd5b505050506040513d601f19601f8201168201806040525081019062001a519190620022f5565b6040516001600160e01b031960e086901b1681526004810193909352602483019190915260ff166044820152606401600060405180830381600087803b15801562001a9b57600080fd5b505af115801562001ab0573d6000803e3d6000fd5b50505050856001600160a01b03166399c8240f6040516020016200147390744552433732315f57484954454c4953545f53414c4560581b815260150190565b600080546001600160a01b038381166001600160a01b0319831681178455604051919092169283917f8be0079c531659141344cd1fd0a4f28419497f9722a3daafe3b4186f6b6457e09190a35050565b6101f3806200263983390190565b60006080828403121562001b6057600080fd5b50919050565b6001600160a01b03811681146200060857600080fd5b803562001b898162001b66565b919050565b6000806000806060858703121562001ba557600080fd5b843567ffffffffffffffff8082111562001bbe57600080fd5b818701915087601f83011262001bd357600080fd5b81358181111562001be357600080fd5b8860208260051b850101111562001bf957600080fd5b60209283019650945090860135908082111562001c1557600080fd5b5062001c248782880162001b4d565b92505062001c356040860162001b7c565b905092959194509250565b60006020828403121562001c5357600080fd5b813562001c608162001b66565b9392505050565b60006020828403121562001c7a57600080fd5b815162001c608162001b66565b60008235601e1983360301811262001c9e57600080fd5b9190910192915050565b60008235609e1983360301811262001c9e57600080fd5b634e487b7160e01b600052603260045260246000fd5b80356002811062001b8957600080fd5b60006020828403121562001cf857600080fd5b62001c608262001cd5565b634e487b7160e01b600052602160045260246000fd5b60008235603e1983360301811262001c9e57600080fd5b634e487b7160e01b600052601160045260246000fd5b600060001982141562001d5d5762001d5d62001d30565b5060010190565b6000808335601e1984360301811262001d7c57600080fd5b830160208101925035905067ffffffffffffffff81111562001d9d57600080fd5b8060051b360383131562001db057600080fd5b9250929050565b8183526000602080850194508260005b8581101562001df957813562001ddd8162001b66565b6001600160a01b03168752958201959082019060010162001dc7565b509495945050505050565b6000808335601e1984360301811262001e1c57600080fd5b830160208101925035905067ffffffffffffffff81111562001e3d57600080fd5b80360383131562001db057600080fd5b81835281816020850137506000828201602090810191909152601f909101601f19169091010190565b8035801515811462001b8957600080fd5b803563ffffffff8116811462001b8957600080fd5b8183526000602080850194508260005b8581101562001df9578135875262001ec683830162001e76565b151583880152604063ffffffff62001ee082850162001e87565b1690880152606082810135908801526080968701969091019060010162001eac565b6000813562001f118162001b66565b6001600160a01b0316835262001f2b602083018362001e04565b60a0602086015262001f4260a08601828462001e4d565b91505062001f54604084018462001e04565b858303604087015262001f6983828462001e4d565b9250505062001f7c606084018462001e04565b858303606087015262001f9183828462001e4d565b925050506080830135601e1984360301811262001fad57600080fd5b8301803567ffffffffffffffff81111562001fc757600080fd5b8060071b360385131562001fda57600080fd5b858303608087015262001ff283826020850162001e9c565b9695505050505050565b60008235603e198336030181126200201357600080fd5b90910192915050565b81835260006001600160fb1b038311156200203657600080fd5b8260051b8083602087013760009401602001938452509192915050565b600062002061828362001d64565b60408552620020756040860182846200201c565b91505062002087602084018462001d64565b858303602087015262001ff28382846200201c565b6001600160a01b038516815260606020808301829052908201849052600090859060808401835b878110156200210957620020d78462001cd5565b60028110620020f657634e487b7160e01b600052602160045260246000fd5b82529282019290820190600101620020c3565b50848103604086015285359250853603601e19810184126200212a57600080fd5b60808252928601926200213e848062001d64565b94508360808401526200215660a08401868362001db7565b94505086830135609e19820181126200216e57600080fd5b82850384840152620021838589830162001f02565b9450505062002196604087018762001ffc565b91508083036040820152620021ac838362002053565b9250620021bd606087018762001ffc565b9150808303606082015250620021d4828262002053565b98975050505050505050565b6f20a226a4a72fa1a7a72a2927a62622a960811b815260100190565b6000808335601e198436030181126200221457600080fd5b83018035915067ffffffffffffffff8211156200223057600080fd5b6020019150600581901b360382131562001db057600080fd5b6001600160a01b038416815260406020820181905260009062002270908301848662001db7565b95945050505050565b6000815180845260005b81811015620022a15760208185018101518683018201520162002283565b81811115620022b4576000602083870101525b50601f01601f19169290920160200192915050565b8381526001600160a01b0383166020820152606060408201819052600090620022709083018462002279565b6000602082840312156200230857600080fd5b815160ff8116811462001c6057600080fd5b6000808335601e198436030181126200233257600080fd5b83018035915067ffffffffffffffff8211156200234e57600080fd5b60200191503681900382131562001db057600080fd5b60208152600060018060a01b0380845116602084015280602085015116604084015250604083015160a06060840152620023a260c084018262002279565b90506060840151601f1980858403016080860152620023c2838362002279565b925060808601519150808584030160a08601525062002270828262002279565b6000808335601e19843603018112620023fa57600080fd5b83018035915067ffffffffffffffff8211156200241657600080fd5b6020019150600781901b360382131562001db057600080fd5b6000608082840312156200244257600080fd5b6040516080810181811067ffffffffffffffff821117156200247457634e487b7160e01b600052604160045260246000fd5b60405282358152620024896020840162001e76565b60208201526200249c6040840162001e87565b6040820152606083013560608201528091505092915050565b608081526000620024da6080830160048152632a24a2a960e11b602082015260400190565b8460208401528281036040840152600a81526913505617d05353d5539560b21b6020820152604081019150508260608301529392505050565b608081526000620025386080830160048152632a24a2a960e11b602082015260400190565b8460208401528281036040840152600f81526e49535f5452414e5346455241424c4560881b6020820152604081019150508260608301529392505050565b600082198211156200258c576200258c62001d30565b500190565b608081526000620025b66080830160048152632a24a2a960e11b602082015260400190565b8460208401528281036040840152601981527f5452414e534645525f554e4c4f434b535f41545f484f555253000000000000006020820152604081019150508260608301529392505050565b604081526000620026186040830186886200201c565b82810360208401526200262d8185876200201c565b97965050505050505056fe608060405234801561001057600080fd5b506040516101f33803806101f383398101604081905261002f916100a6565b8061003861005c565b80546001600160a01b0319166001600160a01b0392909216919091179055506100fb565b600061009e61008c60017f797d7c7d0df25d67e029b044c5bcb2b89d68f6483382b5f85e64485950ed88d16100d6565b60001b6100a360201b6100211760201c565b905090565b90565b6000602082840312156100b857600080fd5b81516001600160a01b03811681146100cf57600080fd5b9392505050565b6000828210156100f657634e487b7160e01b600052601160045260246000fd5b500390565b60ea806101096000396000f3fe608060405236601057600e6013565b005b600e5b601f601b6024565b603b565b565b90565b6000602c605e565b546001600160a01b0316919050565b3660008037600080366000845af43d6000803e8080156059573d6000f35b3d6000fd5b6000608b602160017f797d7c7d0df25d67e029b044c5bcb2b89d68f6483382b5f85e64485950ed88d16090565b905090565b60008282101560af57634e487b7160e01b600052601160045260246000fd5b50039056fea2646970667358221220259264f29009bd0a6fc7e41f706eb552cd0ba80d6788e0f900544d855cc3072364736f6c634300080c0033a264697066735822122082d13c94711d292bab7c57ba356b3bf0310a1c9f2d34eb5439568ca8c144d1fd64736f6c634300080c0033",
  "linkReferences": {},
  "deployedLinkReferences": {}
}